:020000040000FA
:100000000C945E000C9486000C9486000C94860080
:100010000C9486000C9486000C9486000C94860048
:100020000C9486000C9486000C9486000C94860038
:100030000C9486000C9486000C9486000C94860028
:100040000C940C030C9486000C94DA020C94B40209
:100050000C9486000C9486000C9486000C94860008
:100060000C9486000C948600000000080002010039
:100070000003040700000000000000000000000072
:10008000250028002B0000000000240027002A0083
:10009000040404040404040402020202020203032E
:1000A0000303030301020408102040800102040836
:1000B00010200102040810205603F60511241FBE6B
:1000C000CFEFD8E0DEBFCDBF21E0ACE1B1E001C0B1
:1000D0001D92AC3CB207E1F711E0A0E0B1E0E8E826
:1000E000F0E102C005900D92AC31B107D9F710E0F4
:1000F000CDE5D0E004C02197FE010E943606CC3544
:10010000D107C9F70E94DD030C9437080C94000056
:1001100090E0FC01EC55FF4F249180579F4FFC016C
:100120008491882399F090E0880F991FFC01EA5789
:10013000FF4FA591B491FC01E458FF4F8591949134
:100140008FB7F894EC91E22BEC938FBF089508954C
:10015000AF92BF92CF92DF92EF92FF920F931F93D5
:10016000CF93DF936C017B018B01040F151FEB0113
:100170005E01AE18BF08C017D10759F06991D601CA
:10018000ED91FC910190F081E02DC6010995892B3C
:1001900079F7C501DF91CF911F910F91FF90EF90FB
:1001A000DF90CF90BF90AF900895FC01538D448DA8
:1001B000252F30E0842F90E0821B930B541710F012
:1001C000CF96089501970895FC01918D828D98171F
:1001D00061F0A28DAE0FBF2FB11D5D968C91928DF7
:1001E0009F5F9F73928F90E008958FEF9FEF089528
:1001F000FC01918D828D981731F0828DE80FF11DF1
:10020000858D90E008958FEF9FEF0895FC01918D0B
:10021000228D892F90E0805C9F4F821B91098F7304
:100220009927089585E291E00E94060121E0892B3B
:1002300009F420E0822F089580E090E0892B29F0D6
:100240000E94120181110C9400000895FC01A48DFC
:10025000A80FB92FB11DA35ABF4F2C91848D90E0E8
:1002600001968F739927848FA689B7892C93A089CB
:10027000B1898C91837080648C93938D848D981355
:1002800006C00288F389E02D80818F7D80830895E8
:10029000EF92FF920F931F93CF93DF93EC0181E0D6
:1002A000888F9B8D8C8D98131AC0E889F98980817D
:1002B00085FF15C09FB7F894EE89FF896083E889B0
:1002C000F98980818370806480839FBF81E090E0A2
:1002D000DF91CF911F910F91FF90EF900895F62E2F
:1002E0000B8D10E00F5F1F4F0F731127E02E8C8DC9
:1002F0008E110CC00FB607FCFACFE889F98980810E
:1003000085FFF5CFCE010E942601F1CFEB8DEC0FDA
:10031000FD2FF11DE35AFF4FF0829FB7F8940B8F2A
:10032000EA89FB8980818062CFCFCF93DF93EC0194
:10033000888D8823B9F0AA89BB89E889F9898C91CD
:1003400085FD03C0808186FD0DC00FB607FCF7CF89
:100350008C9185FFF2CF808185FFEDCFCE010E9489
:100360002601E9CFDF91CF91089590E0FC01E85993
:10037000FF4F2491FC01EC55FF4F3491FC01E057F5
:10038000FF4FE491EE23C9F0222339F0233001F12D
:10039000A8F4213019F1223029F1F0E0EE0FFF1F0F
:1003A000E458FF4FA591B4918FB7F894EC91611187
:1003B00026C030953E233C938FBF08952730A9F087
:1003C0002830C9F0243049F7809180008F7D03C028
:1003D000809180008F7780938000DFCF84B58F7706
:1003E00084BDDBCF84B58F7DFBCF8091B0008F774C
:1003F0008093B000D2CF8091B0008F7DF9CF3E2B9B
:10040000DACF1F93CF93DF93182FEB010E94880060
:10041000209739F460E0812FDF91CF911F910C94E8
:10042000B501CF3FD10511F461E0F5CFE12FF0E048
:10043000E859FF4FE491E33031F140F4E130B1F09D
:10044000E230E1F0C038D1057CF7E4CFE73029F1A4
:10045000E83059F1E430B1F78091800080628093F8
:100460008000D0938B00C0938A0004C084B580685C
:1004700084BDC7BDDF91CF911F91089584B580627F
:1004800084BDC8BDF7CF80918000806880938000D4
:10049000D0938900C0938800EDCF8091B000806830
:1004A0008093B000C093B300E5CF8091B00080622C
:1004B0008093B000C093B400DDCF3FB7F894809133
:1004C000210190912201A0912301B091240126B530
:1004D000A89B05C02F3F19F00196A11DB11D3FBF7C
:1004E000BA2FA92F982F8827BC01CD01620F711D4B
:1004F000811D911D42E0660F771F881F991F4A9545
:10050000D1F708958F929F92AF92BF92CF92DF92D0
:10051000EF92FF924B015C010E945D026B017C0136
:100520000E945D026C197D098E099F09683E734027
:1005300081059105A8F321E0821A9108A108B1086C
:1005400088EEC80E83E0D81EE11CF11C81149104D2
:10055000A104B10429F7FF90EF90DF90CF90BF90F6
:10056000AF909F908F9008951F920F920FB60F92A9
:1005700011242F933F934F935F936F937F938F93A8
:100580009F93AF93BF93EF93FF9385E291E00E9417
:100590002601FF91EF91BF91AF919F918F917F9134
:1005A0006F915F914F913F912F910F900FBE0F90E0
:1005B0001F9018951F920F920FB60F9211242F9330
:1005C0008F939F93EF93FF93E0913501F091360164
:1005D0008081E0913B01F0913C0182FD1BC0908144
:1005E00080913E018F5F8F7320913F01821741F010
:1005F000E0913E01F0E0EB5DFE4F958F80933E0170
:10060000FF91EF919F918F912F910F900FBE0F90BF
:100610001F9018958081F4CF1F920F920FB60F9202
:1006200011242F933F938F939F93AF93BF93809108
:100630001D0190911E01A0911F01B09120013091E8
:100640001C0123E0230F2D3758F50196A11DB11D84
:1006500020931C0180931D0190931E01A0931F0104
:10066000B09320018091210190912201A09123015A
:10067000B09124010196A11DB11D80932101909399
:100680002201A0932301B0932401BF91AF919F91C8
:100690008F913F912F910F900FBE0F901F90189543
:1006A00026E8230F0296A11DB11DD2CF109228017A
:1006B0001092270188EE93E0A0E0B0E0809329013A
:1006C00090932A01A0932B01B0932C018AE091E032
:1006D000909326018093250185EC90E09093320160
:1006E0008093310184EC90E0909334018093330146
:1006F00080EC90E0909336018093350181EC90E09E
:10070000909338018093370182EC90E090933A0106
:100710008093390186EC90E090933C0180933B01FB
:1007200010923E0110923F0110924001109241013F
:100730001092C3011092C2011092C5011092C4011F
:100740001092C7011092C60161E070E090E080E075
:100750000E9461070097E1F09093C3018093C2016A
:100760001092C5011092C4012091C6013091C701B9
:10077000232B11F4FC0110821092C7011092C601C4
:1007800069E171E08091C2019091C3010C9430083D
:100790008091C2019091C301009711F00E94D80688
:1007A0001092C3011092C2011092C7011092C601AB
:1007B0001092C5011092C4010895CF93DF9300D029
:1007C000CDB7DEB7789484B5826084BD84B581608E
:1007D00084BD85B5826085BD85B5816085BD80910C
:1007E0006E00816080936E00109281008091810084
:1007F000826080938100809181008160809381007C
:10080000809180008160809380008091B10084603D
:100810008093B1008091B00081608093B00080919E
:100820007A00846080937A0080917A00826080935D
:100830007A0080917A00816080937A0080917A00BA
:10084000806880937A001092C1008DE00E94880039
:100850008CE00E9488008BE00E9488008AE00E9461
:10086000880089E00E94880086E00E94880085E078
:100870000E94880083E00E94880087E00E94880030
:1008800084E00E94880082E00E948800E0913501A7
:10089000F091360182E08083E0913101F0913201E4
:1008A0001082E0913301F09134018FEC808310923B
:1008B0003D01E0913901F0913A0186E08083E091B9
:1008C0003701F0913801808180618083E0913701A8
:1008D000F0913801808188608083E0913701F09148
:1008E0003801808180688083E0913701F091380180
:1008F00080818F7D8083CE0101967C0180E0C82EAF
:1009000080E0D82E85E291E00E940601892B09F44F
:1009100050C06AE070E080E090E00E94820285E2D0
:1009200091E00E94E40089831A82F701019000207F
:10093000E9F731978F010E191F09B8016F5F7F4FDB
:1009400090E080E00E9461075C01009701F1FC01EA
:100950001082B7010E9430088091C2019091C301BA
:100960000097D1F0A114B104A9F02091C4013091F5
:10097000C5012017310770F0B5010E9430081093AF
:10098000C7010093C601C5010E94D806BBCF10E085
:1009900000E0E2CF0E94D806B092C301A092C2014B
:1009A0001093C5010093C4011093C7010093C601C1
:1009B000A9CF8091C6019091C701892BD1F00091F8
:1009C000C2011091C30168E171E0C8010E942708CB
:1009D000892B09F0F6C061E08CE00E94B50168EB5C
:1009E0007BE080E090E00E94820260E08CE00E9468
:1009F000B5016FEF70E08BE00E94010260E08AE0D9
:100A00000E94B5016FEF70E089E00E94010260E092
:100A100086E00E94B5016FEF70E085E00E94010260
:100A200060E083E00E94B50160E087E00E94B501CC
:100A300060E084E00E94B50160E082E00E94B501C0
:100A400060ED77E080E090E00E94820260E08BE061
:100A50000E94B50164E670E08AE00E94010260E055
:100A600089E00E94B50164E670E086E00E94010220
:100A700060E085E00E94B50164E670E083E00E94DA
:100A8000010260E087E00E94B50160E084E00E941E
:100A9000B50160E082E00E94B50160ED77E080E0A2
:100AA00090E00E94820260E08BE00E94B50160E06D
:100AB0008AE00E94B50160E089E00E94B50160E033
:100AC00086E00E94B50160E085E00E94B50160E02B
:100AD00083E00E94B50161E087E00E94B50160E01B
:100AE00084E00E94B50160E082E00E94B50168EEFA
:100AF00073E080E090E00E94820264E670E08BE0A8
:100B00000E94010260E08AE00E94B50160E089E095
:100B10000E94B50160E086E00E94B50164E670E0E5
:100B200085E00E94010260E083E00E94B50160E080
:100B300087E00E94B50161E084E00E94B50160E0B9
:100B400082E00E94B50168EE73E080E090E00E94D0
:100B5000820260E08BE00E94B50160E08AE00E94C2
:100B6000B5016FEF70E089E00E94010260E086E06D
:100B70000E94B5016FEF70E085E00E94010260E025
:100B800083E00E94B50160E087E00E94B50160E06B
:100B900084E00E94B50161E082E00E94B50168EE48
:100BA00073E080E090E00E948202C114D10409F455
:100BB000A9CE0E941201882309F4A4CE0E9400004D
:100BC000A1CE6AE171E0C8010E942708892B09F0D3
:100BD00010CF61E08BE00E94B50168EB7BE080E024
:100BE00090E00E94820260E08BE001CF8091C20120
:100BF0009091C301009711F00C94D80608952F929C
:100C00003F924F925F926F927F928F929F92AF929C
:100C1000BF92CF92DF92EF92FF920F931F93CF93E9
:100C2000DF93CDB7DEB7CA1BDB0B0FB6F894DEBF80
:100C30000FBECDBF09942A88398848885F846E84A6
:100C40007D848C849B84AA84B984C884DF80EE80F0
:100C5000FD800C811B81AA81B981CE0FD11D0FB6F9
:100C6000F894DEBF0FBECDBFED010895EE0FFF1F5C
:100C70000590F491E02D09940F931F93CF93DF9388
:100C80008230910510F482E090E0E091CA01F09189
:100C9000CB0130E020E0B0E0A0E0309799F42115DE
:100CA000310509F44AC0281B390B24303105D8F529
:100CB0008A819B816115710589F1FB019383828390
:100CC000FE0111C0408151810281138148175907EB
:100CD000E0F04817590799F4109761F012960C93B9
:100CE000129713961C933296CF01DF91CF911F91EB
:100CF0000F9108950093CA011093CB01F4CF2115F1
:100D0000310551F04217530738F0A901DB019A0170
:100D1000BD01DF01F801C1CFEF01F9CF9093CB0105
:100D20008093CA01CDCFFE01E20FF31F819391930F
:100D30002250310939832883D7CF2091C8013091BF
:100D4000C901232B41F4209102013091030130931A
:100D5000C9012093C80120910001309101012115A2
:100D6000310541F42DB73EB7409104015091050182
:100D7000241B350BE091C801F091C901E217F3077C
:100D8000A0F42E1B3F0B2817390778F0AC014E5FFB
:100D90005F4F2417350748F04E0F5F1F5093C9016E
:100DA0004093C801819391939FCFF0E0E0E09CCF06
:100DB000CF93DF930097E9F0FC0132971382128200
:100DC000A091CA01B091CB01ED0130E020E0109775
:100DD000A1F420813181820F931F2091C8013091AD
:100DE000C9012817390709F061C0F093C901E093E0
:100DF000C801DF91CF910895EA01CE17DF07E8F52A
:100E00004A815B819E0141155105B1F7E901FB83E0
:100E1000EA8349915991C40FD51FEC17FD0761F47E
:100E2000808191810296840F951FE90199838883BF
:100E3000828193819B838A83F0E0E0E012968D911A
:100E40009C9113970097B9F52D913C911197CD0185
:100E50000296820F931F2091C8013091C901281773
:100E6000390739F6309751F51092CB011092CA012B
:100E7000B093C901A093C801BCCFD383C283408182
:100E80005181840F951FC817D90761F44E5F5F4FDA
:100E900088819981480F591F518340838A819B81A2
:100EA000938382832115310509F0B0CFF093CB01F4
:100EB000E093CA019ECFFD01DC01C0CF13821282F4
:100EC000D7CFB0E0A0E0E7E6F7E00C9401068C0194
:100ED000009751F4CB010E943C068C01C801CDB7AC
:100EE000DEB7E0E10C941D06FC01E60FF71F9C0144
:100EF00022503109E217F30708F49DC0D901CD91C2
:100F0000DC911197C617D70798F0C530D10530F39B
:100F1000CE0104978617970708F3C61BD70B2297B5
:100F2000C193D1936D937C93CF010E94D806D6CF05
:100F30005B01AC1ABD0A4C018C0E9D1EA091CA012A
:100F4000B091CB01512C412CF12CE12C109731F5B3
:100F50008091C8019091C9018815990509F05CC07C
:100F60004616570608F058C0809100019091010183
:100F7000009741F48DB79EB740910401509105014F
:100F8000841B950BE817F90708F055C0F093C901C9
:100F9000E093C801F90171836083A0CF8D919C918A
:100FA000119712966C90129713967C901397A81530
:100FB000B90559F56C0142E0C40ED11CCA14DB041A
:100FC00020F1AC014A195B09DA011296159780F0FD
:100FD0006282738251834083D9016D937C93E114C3
:100FE000F10471F0D7011396FC93EE93129776CF2C
:100FF00022968C0F9D1FF90191838083F301EFCF1F
:10100000F093CB01E093CA0169CF4816590608F462
:101010002C017D01D3019ACFCB010E943C067C01BB
:10102000009749F0AE01B8010E941E08C8010E9455
:10103000D806870153CF10E000E050CFFB01DC0160
:1010400002C001900D9241505040D8F70895FB0125
:10105000DC018D91019080190110D9F3990B08954D
:10106000FB01DC0101900D920020E1F7089510E0F2
:10107000CDE5D0E004C0FE010E9436062196CE35B3
:10108000D107C9F7F894FFCF0000CC018000000021
:1010900000004801A800D50095010601E400F80011
:0410A00030003100EB
:107E0000112484B714BE81FFF0D085E080938100F7
:107E100082E08093C00088E18093C10086E0809377
:107E2000C20080E18093C4008EE0C9D0259A86E02C
:107E300020E33CEF91E0309385002093840096BBD3
:107E4000B09BFECF1D9AA8958150A9F7CC24DD24C4
:107E500088248394B5E0AB2EA1E19A2EF3E0BF2EE7
:107E6000A2D0813461F49FD0082FAFD0023811F036
:107E7000013811F484E001C083E08DD089C08234E0
:107E800011F484E103C0853419F485E0A6D080C0E4
:107E9000853579F488D0E82EFF2485D0082F10E0AE
:107EA000102F00270E291F29000F111F8ED06801E7
:107EB0006FC0863521F484E090D080E0DECF843638
:107EC00009F040C070D06FD0082F6DD080E0C81688
:107ED00080E7D80618F4F601B7BEE895C0E0D1E017
:107EE00062D089930C17E1F7F0E0CF16F0E7DF06D8
:107EF00018F0F601B7BEE89568D007B600FCFDCFD4
:107F0000A601A0E0B1E02C9130E011968C91119780
:107F100090E0982F8827822B932B1296FA010C0160
:107F200087BEE89511244E5F5F4FF1E0A038BF0790
:107F300051F7F601A7BEE89507B600FCFDCF97BE46
:107F4000E89526C08437B1F42ED02DD0F82E2BD052
:107F50003CD0F601EF2C8F010F5F1F4F84911BD097
:107F6000EA94F801C1F70894C11CD11CFA94CF0C13
:107F7000D11C0EC0853739F428D08EE10CD085E9AC
:107F80000AD08FE07ACF813511F488E018D01DD067
:107F900080E101D065CF982F8091C00085FFFCCF94
:107FA0009093C60008958091C00087FFFCCF809118
:107FB000C00084FD01C0A8958091C6000895E0E648
:107FC000F0E098E1908380830895EDDF803219F02E
:107FD00088E0F5DFFFCF84E1DECF1F93182FE3DFCA
:107FE0001150E9F7F2DF1F91089580E0E8DFEE27F6
:047FF000FF270994CA
:027FFE00040479
:00000001FF
