:100000000C945A010C948B010C948B010C948B0171
:100010000C948B010C948B010C948B010C948B0130
:100020000C948B010C948B010C948B010C948B0120
:100030000C948B010C948B010C948B010C948B0110
:100040000C948B010C948B010C948B010C948B0100
:100050000C948B010C948B010C948B010C94230653
:100060000C948B010C94ED050C94C3050C948B013E
:100070000C948B010C948B010C948B010C948B01D0
:100080000C948B010C948B010C948B010C948B01C0
:100090000C948D050C9463050C948B010C948B01CE
:1000A0000C948B010C948B010C948B010C948B01A0
:1000B0000C948B010C948B010C948B010C948B0190
:1000C0000C948B010C948B010C948B010C948B0180
:1000D0000C948B010C948B010C948B010C948B0170
:1000E0000C948B010C946B030C94FB030C94600434
:1000F0000C9433040C947E040C9471030C94BD098D
:100100000C9459030C9463030C9467030C94B5018D
:100110000C943A030C944B030C9474040C94050255
:100120000C94B2060C94F1010C940F040C94170477
:100130000C94EC030C9405040C94A2020C94F103AF
:100140000C941F040C944C040C94E2010C941302C4
:100150000C94E4030C9429040C9436030C9455037A
:100160000C9424030C944F030C943D040C945502FE
:100170000C9445030C946A040C9475030C943E0390
:100180000C9442030C945D030C9456040C941F03CE
:1001900000002100240027002A002D003000330039
:1001A00001010000040107010A01000022002500EE
:1001B00028002B002E003100340002010000050150
:1001C00008010B0100000A0B02090C0D0E080703C1
:1001D000040100000000000000000000000000001A
:1001E000000000000000000000000000000000000F
:1001F00012111000000000000000000000000000CC
:1002000000000000000000000000000020002300AB
:10021000260029002C002F003200000100000301FD
:100220000601090105050505070508080808020279
:1002300002020A0A08080404040401010101010180
:1002400001010303030303030303040707070C0C63
:100250000C0C0C0C0C0C020202020606060606062A
:1002600006060B0B0B0B0B0B0B0B010210202008CF
:100270000810204010204080020102010804020101
:100280000102040810204080804020100804020170
:1002900080040201804020100804020108040201C9
:1002A0000102040810204080010204081020408050
:1002B000B206BD0911241FBECFEFD1E2DEBFCDBF14
:1002C00000E00CBF23E0A2E3B2E001C01D92AF3713
:1002D000B207E1F712E0A0E0B2E0EEE7FBE100E0F8
:1002E0000BBF02C007900D92A233B107D9F711E0FE
:1002F000C9E5D1E000E006C021970109802FFE0189
:100300000E94860BC835D10780E00807A9F70E9434
:1003100013070C94AD0D0C940000FC01A089B18969
:1003200082E08C93A485B5851C92A685B7858FEC59
:100330008C93108EA489B58986E08C93A289B389A9
:100340008C9180618C93A289B3898C9188608C9305
:10035000A289B3898C9180688C930288F389E02DFF
:1003600080818F7D808308950895AF92BF92CF9250
:10037000DF92EF92FF920F931F93CF93DF936C0165
:100380007B018B01040F151FEB015E01AE18BF0846
:10039000C017D10759F06991D601ED91FC910190F8
:1003A000F081E02DC6011995892B79F7C501DF9100
:1003B000CF911F910F91FF90EF90DF90CF90BF9062
:1003C000AF900895FC01538D448D252F30E0842F8C
:1003D00090E0821B930B541710F0CF96089501976D
:1003E0000895FC01918D828D981761F0A28DAE0F5A
:1003F000BF2FB11D5D968C91928D9F5F9F73928FE1
:1004000090E008958FEF9FEF0895FC01918D828D0C
:10041000981731F0828DE80FF11D858D90E00895D9
:100420008FEF9FEF0895FC01918D228D892F90E031
:10043000805C9F4F821B91098F73992708958BE3EE
:1004400092E00E94130221E0892B09F420E0822F20
:10045000089588ED92E00E94130221E0892B09F4AF
:1004600020E0822F0895FC01A48DA80FB92FB11DA3
:10047000A35ABF4F2C91848D90E001968F739927DA
:10048000848FA689B7892C93A089B1898C918370B8
:1004900080648C93938D848D981306C00288F389B1
:1004A000E02D80818F7D80830895EF92FF920F93DE
:1004B0001F93CF93DF93EC0181E0888F9B8D8C8D10
:1004C00098131AC0E889F989808185FF15C09FB704
:1004D000F894EE89FF896083E889F98980818370C7
:1004E000806480839FBF81E090E0DF91CF911F9176
:1004F0000F91FF90EF900895F62E0B8D10E00F5F97
:100500001F4F0F731127E02E8C8D8E110CC00FB66C
:1005100007FCFACFE889F989808185FFF5CFCE0104
:100520000E943302F1CFEB8DEC0FFD2FF11DE35A4A
:10053000FF4FF0829FB7F8940B8FEA89FB89808187
:100540008062CFCFCF93DF93EC01888D8823B9F001
:10055000AA89BB89E889F9898C9185FD03C08081CE
:1005600086FD0DC00FB607FCF7CF8C9185FFF2CF4B
:10057000808185FFEDCFCE010E943302E9CFDF916C
:10058000CF91089580E090E0892B29F00E94290204
:1005900081110E94000080E090E0892B29F00E94E8
:1005A0001F0281110E94000080E090E0892B49F039
:1005B00080E090E0892B29F00E94000081110E94C8
:1005C000000080E090E0892B49F080E090E0892BEA
:1005D00029F00E94000081110C9400000895282F3A
:1005E00030E0F901EC53FE4F9491F901E659FD4FCB
:1005F00044912C5D3D4FF9012491222309F435C02B
:10060000992311F191509231F8F4E92FF0E0882705
:10061000E35FFC4F8F4F0C94860B3E0342031F0396
:1006200036033A03240345034B034F035503590391
:100630005D036303670324036B03710375038091F8
:1006400080008F7780938000E22FF0E0EE0FFF1F95
:10065000E655FE4FA591B4918FB7F894EC916111D6
:1006600048C040954E234C938FBF089580918000E1
:100670008F7DE8CF80918000877FE4CF84B58F772E
:1006800084BDE2CF84B58F7DFBCF8091B0008F77A2
:100690008093B000D9CF8091B0008F7DF9CF809149
:1006A00090008F7780939000CFCF809190008F7DC6
:1006B000F9CF80919000877FF5CF8091A0008F7750
:1006C0008093A000C1CF8091A0008F7DF9CF809151
:1006D000A000877FF5CF809120018F778093200144
:1006E000B3CF809120018F7DF9CF80912001877F4A
:1006F000F5CF4E2BB8CFCF93DF9390E0FC01E659B6
:10070000FD4F24918C5D9D4FFC0184918823D1F095
:1007100090E0880F991FFC01E057FE4FA591B4911E
:10072000FC01E655FE4FC591D49161110EC09FB7F3
:10073000F8948C91E22FE0958E238C932881E2230C
:10074000E8839FBFDF91CF9108958FB7F894EC9124
:10075000E22BEC938FBFF6CF1F93CF93DF93182F2D
:10076000EB0161E00E947B03209739F460E0812F68
:10077000DF91CF911F910C94EF02CF3FD10511F47F
:1007800061E0F5CFE12FF0E0EC53FE4FE491E15052
:10079000E23108F0B3C0F0E08827EE52FC4F8F4FF3
:1007A0000C94860BE403EC03F103FB0305047E04C5
:1007B0000F0417041F04290433043D044C04560499
:1007C0007E0460046A04740484B5806884BDC7BD77
:1007D000DF91CF911F91089584B5806284BDC8BD1B
:1007E000F7CF80918000806880938000D09389004B
:1007F000C0938800EDCF809180008062809380005C
:10080000D0938B00C0938A00E3CF809180008860F2
:1008100080938000D0938D00C0938C00D9CF8091BD
:10082000B00080688093B000C093B300D1CF8091B6
:10083000B00080628093B000C093B400C9CF8091B3
:100840009000806880939000D0939900C0939800A6
:10085000BFCF80919000806280939000D0939B00E6
:10086000C0939A00B5CF80919000886080939000EB
:10087000D0939D00C0939C00ABCF8091A000806876
:100880008093A0008091A0008F7B8093A000D093E4
:10089000A900C093A8009CCF8091A00080628093A3
:1008A000A000D093AB00C093AA0092CF8091A0008B
:1008B00088608093A000D093AD00C093AC0088CF37
:1008C00080912001806880932001D0932901C093FA
:1008D00028017ECF80912001806280932001D093F7
:1008E0002B01C0932A0174CF8091200188608093EE
:1008F0002001D0932D01C0932C016ACFC038D105BF
:100900000CF03ECF33CF3FB7F894809137029091EF
:100910003802A0913902B0913A0226B5A89B05C0D1
:100920002F3F19F00196A11DB11D3FBFBA2FA92F6E
:10093000982F8827BC01CD01620F711D811D911D6B
:1009400042E0660F771F881F991F4A95D1F70895D7
:100950008F929F92AF92BF92CF92DF92EF92FF92CF
:100960004B015C010E9483046B017C010E948304A3
:100970006C197D098E099F09683E734081059105B8
:10098000A8F321E0821A9108A108B10888EEC80EE8
:1009900083E0D81EE11CF11C81149104A104B10470
:1009A00029F7FF90EF90DF90CF90BF90AF909F908E
:1009B0008F90089560E08BE00E94EF0260E08AE093
:1009C0000E94EF0260E089E00E94EF0260E086E0B2
:1009D0000E94EF0260E085E00E94EF0260E083E0A9
:1009E0000E94EF0261E087E00E94EF0260E084E095
:1009F0000E94EF0260E082E00C94EF02FC010190A3
:100A00000020E9F73197AF01481B590BBC018BE37C
:100A100092E00C94B5012091790330917A03232B55
:100A200039F421E0FC018081882361F020E00AC0D4
:100A3000BC0180917503909176030E949D0D21E089
:100A4000892BA1F7822F0895EF92FF920F931F93A6
:100A5000CF93DF93EC017B018A0188819981009714
:100A600029F02A813B812417350788F4B8016F5F8C
:100A70007F4F0E94B30C009791F0998388831B836A
:100A80000A832C813D81232B11F4FC0110821D83EC
:100A90000C83B701888199810E94A60D0CC08881C2
:100AA0009981009711F00E942A0C198218821D82E8
:100AB0001C821B821A82CE01DF91CF911F910F9170
:100AC000FF90EF9008951F920F920FB60F9211248E
:100AD0000BB60F922F933F934F935F936F937F9338
:100AE0008F939F93AF93BF93EF93FF938BE392E02A
:100AF0000E943302FF91EF91BF91AF919F918F912F
:100B00007F916F915F914F913F912F910F900BBE0D
:100B10000F900FBE0F901F9018951F920F920FB657
:100B20000F9211240BB60F922F938F939F93EF93F5
:100B3000FF93E0914B02F0914C028081E0915102D1
:100B4000F091520282FD1DC09081809154028F5F0E
:100B50008F7320915502821741F0E0915402F0E02A
:100B6000E55CFD4F958F80935402FF91EF919F912B
:100B70008F912F910F900BBE0F900FBE0F901F9073
:100B800018958081F2CF1F920F920FB60F92112409
:100B90000BB60F922F933F934F935F936F937F9377
:100BA0008F939F93AF93BF93EF93FF9388ED92E062
:100BB0000E943302FF91EF91BF91AF919F918F916E
:100BC0007F916F915F914F913F912F910F900BBE4D
:100BD0000F900FBE0F901F9018951F920F920FB697
:100BE0000F9211240BB60F922F938F939F93EF9335
:100BF000FF93E091E802F091E9028081E091EE023A
:100C0000F091EF0282FD1DC090818091F1028F5F13
:100C10008F732091F202821741F0E091F102F0E02F
:100C2000E852FD4F958F8093F102FF91EF919F91D4
:100C30008F912F910F900BBE0F900FBE0F901F90B2
:100C400018958081F2CF1F920F920FB60F92112448
:100C50002F933F938F939F93AF93BF9380913302D2
:100C600090913402A0913502B09136023091320257
:100C700023E0230F2D3758F50196A11DB11D2093B8
:100C800032028093330290933402A0933502B093E2
:100C900036028091370290913802A0913902B091CA
:100CA0003A020196A11DB11D80933702909338023C
:100CB000A0933902B0933A02BF91AF919F918F9167
:100CC0003F912F910F900FBE0F901F90189526E81F
:100CD000230F0296A11DB11DD2CFCF92DF92EF92CA
:100CE000FF920F931F93E82FF92F05C001501109B0
:100CF0002109310961F1908196239417B9F305C058
:100D0000015011092109310911F1908196239413A1
:100D1000F7CFC12CD12CE12CF12C0AC08FEFC81ACF
:100D2000D80AE80AF80A0C151D052E053F0579F0CA
:100D300080818623841791F36C2D7D2D8E2D9F2D20
:100D40001F910F91FF90EF90DF90CF90089560E09A
:100D500070E080E090E01F910F91FF90EF90DF90A6
:100D6000CF900895EBE3F2E01382128248EE53E055
:100D700060E070E044835583668377838CE092E083
:100D8000918380832DEC30E0358724872CEC30E094
:100D90003787268728EC30E0318B208B29EC30E038
:100DA000338B228B2AEC30E0358B248B2EEC30E019
:100DB000378B268B118E128E138E148EE8EDF2E097
:100DC0001382128244835583668377839183808361
:100DD00085EC90E09587848784EC90E09787868700
:100DE00080EC90E0918B808B81EC90E0938B828BF8
:100DF00082EC90E0958B848B86EC90E0978B868BD1
:100E0000118E128E138E148EE5E7F3E0118210829C
:100E1000138212821582148250E040E06AE272E08E
:100E2000CF010C942405CF93DF93CDB7DEB7A39702
:100E30000FB6F894DEBF0FBECDBF789484B5826044
:100E400084BD84B5816084BD85B5826085BD85B56E
:100E5000816085BD80916E00816080936E001092EC
:100E60008100809181008260809381008091810067
:100E700081608093810080918000816080938000F8
:100E80008091B10084608093B1008091B000816056
:100E90008093B00080919100826080939100809156
:100EA0009100816080939100809190008160809397
:100EB00090008091A10082608093A1008091A100A8
:100EC00081608093A1008091A00081608093A00048
:100ED00080912101826080932101809121018160B4
:100EE0008093210180912001816080932001809175
:100EF0007A00846080937A0080917A008260809387
:100F00007A0080917A00816080937A0080917A00E3
:100F1000806880937A001092C10061E08DE00E94A9
:100F20007B0361E08CE00E947B0361E08BE00E9428
:100F30007B0361E08AE00E947B0361E089E00E941C
:100F40007B0361E086E00E947B0361E085E00E9414
:100F50007B0361E083E00E947B0361E087E00E9405
:100F60007B0361E084E00E947B0361E082E00E94F9
:100F70007B0388ED92E00E948D018BE392E00E945A
:100F80008D017E0182E2E80EF11CAA24AA94B12C04
:100F900044E6842E912C53E0252E312C63E2C62E9C
:100FA000D12C88ED92E00E941302892B09F45EC0D7
:100FB0006AE070E080E090E00E94A80488ED92E092
:100FC0000E94F1011A8219821C821B821E821D82DC
:100FD0008AA31BA2F70101900020E9F73197AF0126
:100FE0004E195F09B701CE0101960E942405809138
:100FF000750390917603009711F169817A816115EB
:101000007105D9F040917703509178032D813E818D
:101010004217530790F00E94A60D8D819E819093F8
:101020007A03809379031E821D8289819A810097B9
:1010300009F4B7CF0E942A0CB4CF0E942A0C8981F0
:101040009A8190937603809375038B819C81909312
:101050007803809377038D819E8190937A038093A8
:1010600079031A8219821C821B82DDCF8091790359
:1010700090917A03892B09F47EC08AE192E00E9464
:101080000B05882331F10091000210910102B80193
:101090008BE00E94AC0360E08AE00E94EF02B8019E
:1010A00089E00E94AC0360E086E00E94EF02B80194
:1010B00085E00E94AC0360E083E00E94EF0260E004
:1010C00087E00E94EF0260E084E00E94EF0260E0AF
:1010D0004FC08CE192E00E940B058823E9F000915B
:1010E00000021091010260E08BE00E94EF02B80163
:1010F0008AE00E94AC0360E089E00E94EF02B80140
:1011000086E00E94AC0360E085E00E94EF02B80137
:1011100083E00E94AC03D3CF8EE192E00E940B05E6
:10112000882309F4C4C0009100021091010260E01C
:101130008BE00E94EF0260E08AE00E94EF02B801BB
:1011400089E00E94AC0360E086E00E94EF02B801F3
:1011500085E00E94AC0360E083E00E94EF0260E063
:1011600087E00E94EF0260E084E00E94EF0261E00D
:1011700082E00E94EF0250E040E06AE272E085E720
:1011800093E00E94240561E086E30E947B0360E017
:1011900086E30E94EF02C1010197F1F761E086E367
:1011A0000E94EF02C6010197F1F760E086E30E941A
:1011B000EF0260E086E30E947B03E0EAF2E06491E4
:1011C000EAE5F2E08491E82FF0E0EE0FFF1FE65F22
:1011D000FD4F8591949100E412E42FE030E0462F1A
:1011E0000E946D06611571058105910529F06F5FFB
:1011F0007F4F8F4F9F4F9F700E94C80920E030E0C3
:1012000040E05FE30E94030A24E037EE4CE05DE338
:101210000E94030A20E030E040E85FE30E94C20A37
:101220000E942E0B2B018B018BE292E00531110500
:101230000CF0A0C00E94DA04052C000C66087708A8
:1012400017FF7DC06DE28BE392E00E9455022227DA
:101250003327A901241935094609570919A28E0116
:101260000F5D1F4F9AE0492E512C612C712CCA0141
:10127000B901A30192010E94640B605DF8016293C1
:101280008F01211531054105510589F7C801012B51
:1012900009F070C088E292E00E94FE0460E273E010
:1012A00080E090E00E94A8040E94C2027ACE80E210
:1012B00092E00E940B05882311F100910002109129
:1012C0000102B8018BE00E94AC0360E08AE00E945A
:1012D000EF0260E089E00E94EF0260E086E00E9499
:1012E000EF02B80185E00E94AC0360E083E00E9459
:1012F000EF0260E087E00E94EF0261E0E5CE82E26B
:1013000092E00E940B05882319F00E94DA0433CF83
:1013100084E292E00E940B05882329F0909201025A
:101320008092000228CF86E292E00E940B0588237B
:1013300009F421CFB0920102A09200021CCFA301B8
:10134000920119A28E010F5D1F4F8AE0482E512C89
:10135000612C712CCA01B901A30192010E94640B96
:10136000605DF80162938F0121153105410551053A
:1013700089F78CCF0E94FE048DCF809175039091E8
:101380007603009711F00C942A0C0895E89409C094
:1013900097FB3EF490958095709561957F4F8F4FA8
:1013A0009F4F9923A9F0F92F96E9BB279395F695BE
:1013B000879577956795B795F111F8CFFAF4BB0F3C
:1013C00011F460FF1BC06F5F7F4F8F4F9F4F16C0A0
:1013D000882311F096E911C0772321F09EE8872F2A
:1013E000762F05C0662371F096E8862F70E060E0E6
:1013F0002AF09A95660F771F881FDAF7880F96955F
:10140000879597F908950E94160A0C94870A0E94FE
:10141000790A38F00E94800A20F0952311F00C948C
:10142000700A0C94760A11240C94BB0A0E94980A44
:1014300070F3959FC1F3950F50E0551F629FF00127
:10144000729FBB27F00DB11D639FAA27F00DB11D40
:10145000AA1F649F6627B00DA11D661F829F2227C9
:10146000B00DA11D621F739FB00DA11D621F839F50
:10147000A00D611D221F749F3327A00D611D231F26
:10148000849F600D211D822F762F6A2F11249F5774
:1014900050409AF0F1F088234AF0EE0FFF1FBB1F77
:1014A000661F771F881F91505040A9F79E3F510536
:1014B00080F00C94700A0C94BB0A5F3FE4F3983EF2
:1014C000D4F3869577956795B795F795E7959F5FE0
:1014D000C1F7FE2B880F911D9695879597F9089572
:1014E00097F99F6780E870E060E008959FEF80ECD7
:1014F000089500240A94161617061806090608957A
:1015000000240A9412161306140605060895092EDF
:101510000394000C11F4882352F0BB0F40F4BF2B4E
:1015200011F460FF04C06F5F7F4F8F4F9F4F08958E
:1015300057FD9058440F551F59F05F3F71F0479584
:10154000880F97FB991F61F09F3F79F08795089569
:10155000121613061406551FF2CF4695F1DF08C088
:10156000161617061806991FF1CF869571056105A5
:1015700008940895E894BB2766277727CB0197F94D
:1015800008955058BB27AA270E94D90A0C94870AAD
:101590000E94790A38F00E94800A20F039F49F3FB7
:1015A00019F426F40C94760A0EF4E095E7FB0C94FB
:1015B000700AE92F0E94980A58F3BA176207730756
:1015C0008407950720F079F4A6F50C94BA0A0EF476
:1015D000E0950B2EBA2FA02D0B01B90190010C0143
:1015E000CA01A0011124FF27591B99F0593F50F45B
:1015F000503E68F11A16F040A22F232F342F4427B3
:10160000585FF3CF469537952795A795F0405395AA
:10161000C9F77EF41F16BA0B620B730B840BBAF07A
:101620009150A1F0FF0FBB1F661F771F881FC2F7E5
:101630000EC0BA0F621F731F841F48F487957795F9
:101640006795B795F7959E3F08F0B0CF9395880FB3
:1016500008F09927EE0F9795879508950E94350B0E
:101660006894B1110C94BB0A08950E94A00A88F0F6
:101670009F5798F0B92F9927B751B0F0E1F0660F56
:10168000771F881F991F1AF0BA95C9F714C0B13097
:1016900091F00E94BA0AB1E008950C94BA0A672F3B
:1016A000782F8827B85F39F0B93FCCF386957795C6
:1016B0006795B395D9F73EF49095809570956195AF
:1016C0007F4F8F4F9F4F0895A1E21A2EAA1BBB1B7D
:1016D000FD010DC0AA1FBB1FEE1FFF1FA217B307FE
:1016E000E407F50720F0A21BB30BE40BF50B661F14
:1016F000771F881F991F1A9469F7609570958095D8
:1017000090959B01AC01BD01CF010895EE0FFF1F25
:10171000881F8BBF0790F691E02D19940F931F93AC
:10172000CF93DF938230910510F482E090E0E09156
:101730007D03F0917E0330E020E0B0E0A0E0309740
:1017400099F42115310509F44AC0281B390B2430BE
:101750003105D8F58A819B816115710589F1FB01FD
:1017600093838283FE0111C04081518102811381E4
:1017700048175907E0F04817590799F4109761F096
:1017800012960C93129713961C933296CF01DF9109
:10179000CF911F910F91089500937D0310937E03C5
:1017A000F4CF2115310551F04217530738F0A90144
:1017B000DB019A01BD01DF01F801C1CFEF01F9CFD3
:1017C00090937E0380937D03CDCFFE01E20FF31F44
:1017D000819391932250310939832883D7CF209167
:1017E0007B0330917C03232B41F420910402309140
:1017F000050230937C0320937B03209102023091F9
:1018000003022115310541F42DB73EB74091060280
:1018100050910702241B350BE0917B03F0917C0370
:10182000E217F307A0F42E1B3F0B2817390778F0B7
:10183000AC014E5F5F4F2417350748F04E0F5F1F16
:1018400050937C0340937B03819391939FCFF0E06F
:10185000E0E09CCFCF93DF930097E9F0FC01329753
:1018600013821282A0917D03B0917E03ED0130E0DE
:1018700020E01097A1F420813181820F931F2091E5
:101880007B0330917C032817390709F061C0F0937E
:101890007C03E0937B03DF91CF910895EA01CE179B
:1018A000DF07E8F54A815B819E0141155105B1F7DB
:1018B000E901FB83EA8349915991C40FD51FEC17C5
:1018C000FD0761F4808191810296840F951FE901E3
:1018D00099838883828193819B838A83F0E0E0E00F
:1018E00012968D919C9113970097B9F52D913C918B
:1018F0001197CD010296820F931F20917B033091A7
:101900007C032817390739F6309751F510927E037A
:1019100010927D03B0937C03A0937B03BCCFD38351
:10192000C28340815181840F951FC817D90761F484
:101930004E5F5F4F88819981480F591F51834083C3
:101940008A819B81938382832115310509F0B0CF71
:10195000F0937E03E0937D039ECFFD01DC01C0CFB9
:1019600013821282D7CF4F925F926F927F928F92A3
:101970009F92AF92BF92CF92DF92EF92FF920F931E
:101980001F93CF93DF938C01009799F4CB01DF91E4
:10199000CF911F910F91FF90EF90DF90CF90BF906C
:1019A000AF909F908F907F906F905F904F900C942E
:1019B0008E0BFC01E60FF71F9C0122503109E21744
:1019C000F30708F4AEC0D901CD91DC911197C61789
:1019D000D70720F1C530D10578F0CE0104978617DE
:1019E000970750F0C61BD70B2297C193D1936D93E5
:1019F0007C93CF010E942A0CC801DF91CF911F91E7
:101A00000F91FF90EF90DF90CF90BF90AF909F909D
:101A10008F907F906F905F904F9008955B01AC1A0C
:101A2000BD0A4C018C0E9D1EA0917D03B0917E03DA
:101A3000512C412CF12CE12C109731F580917B0336
:101A400090917C038815990509F05CC046165706ED
:101A500008F058C08091020290910302009741F46F
:101A60008DB79EB74091060250910702841B950BDB
:101A7000E817F90708F055C0F0937C03E0937B0367
:101A8000F90171836083B8CF8D919C911197129663
:101A90006C90129713967C901397A815B90559F579
:101AA0006C0142E0C40ED11CCA14DB0420F1AC016D
:101AB0004A195B09DA011296159780F062827382E7
:101AC00051834083D9016D937C93E114F10471F04B
:101AD000D7011396FC93EE9312978ECF22968C0F1C
:101AE0009D1FF90191838083F301EFCFF0937E0373
:101AF000E0937D0381CF4816590608F42C017D013F
:101B0000D3019ACFCB010E948E0B7C01009749F044
:101B1000AE01B8010E94940DC8010E942A0C8701F1
:101B20006BCF10E000E068CFFB01DC0102C0019048
:101B30000D9241505040D8F70895FB01DC018D9182
:101B4000019080190110D9F3990B0895FB01DC0174
:101B500001900D920020E1F7089511E0C9E5D1E070
:101B600000E006C0802FFE010E94860B2196011D19
:0E1B7000CA35D10780E00807A9F7F894FFCF27
:101B7E00FF0000007F038000000000005502B50149
:101B8E00E201A2021302F10105023100320033001C
:101B9E0034003500360037000D0A0061756E206E78
:021BAE006F00C6
:00000001FF
