:100000000C944D010C947E010C947E010C947E01A5
:100010000C947E010C947E010C947E010C947E0164
:100020000C947E010C947E010C947E010C947E0154
:100030000C947E010C947E010C947E010C947E0144
:100040000C947E010C947E010C947E010C947E0134
:100050000C947E010C947E010C947E010C9413058B
:100060000C947E010C94DD040C94B3040C947E017A
:100070000C947E010C947E010C947E010C947E0104
:100080000C947E010C947E010C947E010C947E01F4
:100090000C947E010C947E010C947E010C947E01E4
:1000A0000C947E010C947E010C947E010C947E01D4
:1000B0000C947E010C947E010C947E010C947E01C4
:1000C0000C947E010C947E010C947E010C947E01B4
:1000D0000C947E010C947E010C947E010C947E01A4
:1000E0000C947E010C94C2030C945A030C943104BA
:1000F0000C94FE010C9448030C941D040C94FF0313
:100100000C9434030C94F0010C94CA030C945D0518
:100110000C9423030C941F030C941B030C945003A6
:100120000C9483020C943E030C943A030C949F03AA
:100130000C9456030C94DC030C9409030C94CD012D
:100140000C94A0010C9404030C94A4030C9442039B
:100150000C94D2030C94F0030C94BD070C949703F9
:100160000C94B8030C94DC010C94E6030C94AE03DD
:100170000C9436020C9413040C9427030C942A0359
:100180000C9409040C944C030C9430030C94270435
:1001900000000A0B02090C0D0E0807030401000001
:1001A000000000000000000000000000000000004F
:1001B000000000000000000000000000121110000C
:1001C000000000000000000000000000000000002F
:1001D00000000000000000002200250028002B0085
:1001E0002E003100340002010000050108010B015E
:1001F00000002100240027002A002D0030003300D9
:1002000001010000040107010A01050505050705B4
:1002100008080808020202020A0A08080404040482
:1002200001010101010101010303030303030303AE
:10023000040707070C0C0C0C0C0C0C0C020202023D
:1002400006060606060606060B0B0B0B0B0B0B0B26
:1002500001021020200808102040102040800201D8
:1002600002010804020101020408102040808040BD
:1002700020100804020180040201804020100804BC
:10028000020108040201010204081020408001025A
:100290000408102040805D05BD0711241FBECFEF6C
:1002A000D1E2DEBFCDBF00E00CBF22E0A2E2B2E0AF
:1002B00001C01D92A23DB207E1F712E0A0E0B2E05A
:1002C000EEEFF3E100E00BBF02C007900D92A23207
:1002D000B107D9F711E0CCE4D1E000E006C02197E6
:1002E0000109802FFE010E94C607CB34D10780E0B0
:1002F0000807A9F70E9498050C94ED090C940000DA
:1003000090E0FC01E05BFD4F2491865F9D4FFC0176
:100310008491882399F090E0880F991FFC01E051A7
:10032000FE4FA591B491FC01EA52FE4F8591949144
:100330008FB7F894EC91E22BEC938FBF089508955A
:10034000AF92BF92CF92DF92EF92FF920F931F93E3
:10035000CF93DF936C017B018B01040F151FEB0121
:100360005E01AE18BF08C017D10759F06991D601D8
:10037000ED91FC910190F081E02DC6011995892B3A
:1003800079F7C501DF91CF911F910F91FF90EF9009
:10039000DF90CF90BF90AF900895FC01538D448DB6
:1003A000252F30E0842F90E0821B930B541710F020
:1003B000CF96089501970895FC01918D828D98172D
:1003C00061F0A28DAE0FBF2FB11D5D968C91928D05
:1003D0009F5F9F73928F90E008958FEF9FEF089536
:1003E000FC01918D828D981731F0828DE80FF11DFF
:1003F000858D90E008958FEF9FEF0895FC01918D1A
:10040000228D892F90E0805C9F4F821B91098F7312
:10041000992708958BE292E00E94FE0121E0892B4A
:1004200009F420E0822F0895FC01A48DA80FB92FB4
:10043000B11DA35ABF4F2C91848D90E001968F730C
:100440009927848FA689B7892C93A089B1898C912B
:10045000837080648C93938D848D981306C002887A
:10046000F389E02D80818F7D80830895EF92FF9244
:100470000F931F93CF93DF93EC0181E0888F9B8DC7
:100480008C8D98131AC0E889F989808185FF15C081
:100490009FB7F894EE89FF896083E889F9898081A4
:1004A0008370806480839FBF81E090E0DF91CF9173
:1004B0001F910F91FF90EF900895F62E0B8D10E095
:1004C0000F5F1F4F0F731127E02E8C8D8E110CC004
:1004D0000FB607FCFACFE889F989808185FFF5CF4F
:1004E000CE010E941402F1CFEB8DEC0FFD2FF11D18
:1004F000E35AFF4FF0829FB7F8940B8FEA89FB898C
:1005000080818062CFCFCF93DF93EC01888D8823E9
:10051000B9F0AA89BB89E889F9898C9185FD03C066
:10052000808186FD0DC00FB607FCF7CF8C9185FF4B
:10053000F2CF808185FFEDCFCE010E941402E9CF7A
:10054000DF91CF91089580E090E0892B29F00E94FF
:100550000A0281110E94000080E090E0892B49F09E
:1005600080E090E0892B29F00E94000081110E9418
:10057000000080E090E0892B49F080E090E0892B3A
:1005800029F00E94000081110E94000080E090E0AC
:10059000892B49F080E090E0892B29F00E9400002F
:1005A00081110C9400000895282F30E0F901E057E4
:1005B000FE4F9491F901E05BFD4F4491265F3D4F62
:1005C000F9012491222309F435C0992311F19150A6
:1005D0009231F8F4E92FF0E08827EE50FD4F8F4F6D
:1005E0000C94C6072303270304031B031F030903FB
:1005F0002A03300334033A033E03420348034C0307
:100600000903500356035A03809180008F7780932B
:100610008000E22FF0E0EE0FFF1FEA52FE4FA5919F
:10062000B4918FB7F894EC91611148C040954E2376
:100630004C938FBF0895809180008F7DE8CF80918B
:100640008000877FE4CF84B58F7784BDE2CF84B507
:100650008F7DFBCF8091B0008F778093B000D9CF92
:100660008091B0008F7DF9CF809190008F7780933B
:100670009000CFCF809190008F7DF9CF8091900036
:10068000877FF5CF8091A0008F778093A000C1CFA6
:100690008091A0008F7DF9CF8091A000877FF5CF5A
:1006A000809120018F7780932001B3CF809120012A
:1006B0008F7DF9CF80912001877FF5CF4E2BB8CF6A
:1006C0001F93CF93DF93182FEB010E948001209797
:1006D00039F460E0812FDF91CF911F910C94D40207
:1006E000CF3FD10511F461E0F5CFE12FF0E0E05705
:1006F000FE4FE491E150E23108F0B3C0F0E088270A
:10070000EB57FC4F8F4F0C94C60797039F03A4032E
:10071000AE03B8033104C203CA03D203DC03E60309
:10072000F003FF030904310413041D04270484B5F6
:10073000806884BDC7BDDF91CF911F91089584B5B6
:10074000806284BDC8BDF7CF8091800080688093AF
:100750008000D0938900C0938800EDCF8091800005
:10076000806280938000D0938B00C0938A00E3CF97
:1007700080918000886080938000D0938D00C0932A
:100780008C00D9CF8091B00080688093B000C09376
:10079000B300D1CF8091B00080628093B000C0934D
:1007A000B400C9CF80919000806880939000D0936E
:1007B0009900C0939800BFCF809190008062809391
:1007C0009000D0939B00C0939A00B5CF8091900089
:1007D000886080939000D0939D00C0939C00ABCF25
:1007E0008091A00080688093A0008091A0008F7B02
:1007F0008093A000D093A900C093A8009CCF8091C3
:10080000A00080628093A000D093AB00C093AA00A8
:1008100092CF8091A00088608093A000D093AD001B
:10082000C093AC0088CF8091200180688093200124
:10083000D0932901C09328017ECF8091200180624E
:1008400080932001D0932B01C0932A0174CF809113
:100850002001886080932001D0932D01C0932C014A
:100860006ACFC038D1050CF03ECF33CF3FB7F894F4
:100870008091270290912802A0912902B0912A022A
:1008800026B5A89B05C02F3F19F00196A11DB11DEB
:100890003FBFBA2FA92F982F8827BC01CD01620F27
:1008A000711D811D911D42E0660F771F881F991FE2
:1008B0004A95D1F708952091CC023091CD02232B97
:1008C00039F421E0FC018081882361F020E00AC036
:1008D000BC018091C8029091C9020E94DD0921E00B
:1008E000892BA1F7822F0895EF92FF920F931F9308
:1008F000CF93DF93EC017B018A0188819981009776
:1009000029F02A813B812417350788F4B8016F5FED
:100910007F4F0E94F308009791F0998388831B838F
:100920000A832C813D81232B11F4FC0110821D834D
:100930000C83B701888199810E94E6090CC08881E7
:100940009981009711F00E946A08198218821D820D
:100950001C821B821A82CE01DF91CF911F910F91D1
:10096000FF90EF9008951F920F920FB60F921124EF
:100970000BB60F922F933F934F935F936F937F9399
:100980008F939F93AF93BF93EF93FF938BE292E08C
:100990000E941402FF91EF91BF91AF919F918F91AF
:1009A0007F916F915F914F913F912F910F900BBE6F
:1009B0000F900FBE0F901F9018951F920F920FB6B9
:1009C0000F9211240BB60F922F938F939F93EF9357
:1009D000FF93E0913B02F0913C028081E091410263
:1009E000F091420282FD1DC09081809144028F5F90
:1009F0008F7320914502821741F0E0914402F0E0AC
:100A0000E55DFD4F958F80934402FF91EF919F919B
:100A10008F912F910F900BBE0F900FBE0F901F90D4
:100A200018958081F2CF1F920F920FB60F9211246A
:100A30002F933F938F939F93AF93BF938091230204
:100A400090912402A0912502B091260230912202B9
:100A500023E0230F2D3758F50196A11DB11D2093DA
:100A600022028093230290932402A0932502B09344
:100A700026028091270290912802A0912902B0912C
:100A80002A020196A11DB11D80932702909328028E
:100A9000A0932902B0932A02BF91AF919F918F91A9
:100AA0003F912F910F900FBE0F901F90189526E841
:100AB000230F0296A11DB11DD2CFEBE2F2E013820B
:100AC000128288EE93E0A0E0B0E084839583A68351
:100AD000B7838AE092E09183808385EC90E09587EC
:100AE000848784EC90E09787868780EC90E0918BF8
:100AF000808B81EC90E0938B828B82EC90E0958BE5
:100B0000848B86EC90E0978B868B118E128E138EE1
:100B1000148EE8ECF2E011821082138212821582A8
:100B2000148250E040E069E172E0CF010C9474045B
:100B3000CF93DF9300D000D01F921F92CDB7DEB7C6
:100B4000789484B5826084BD84B5816084BD85B5A8
:100B5000826085BD85B5816085BD80916E008160B4
:100B600080936E001092810080918100826080935A
:100B7000810080918100816080938100809180005C
:100B80008160809380008091B10084608093B10087
:100B90008091B00081608093B0008091910082606C
:100BA0008093910080919100816080939100809169
:100BB00090008160809390008091A100826080937A
:100BC000A1008091A10081608093A1008091A0008C
:100BD00081608093A0008091210182608093210137
:100BE00080912101816080932101809120018160A9
:100BF0008093200180917A00846080937A008091B4
:100C00007A00826080937A0080917A00816080937C
:100C10007A0080917A00806880937A001092C100F7
:100C20008DE00E9480018CE00E9480018BE00E9498
:100C300080018AE00E94800189E00E94800186E0B4
:100C40000E94800185E00E94800183E00E94800173
:100C500087E00E94800184E00E94800182E00E947F
:100C60008001E0913B02F0913C0282E08083E091C0
:100C70003702F09138021082E0913902F0913A0285
:100C80008FEC808310924302E0913F02F09140028A
:100C900086E08083E0913D02F0913E028081806198
:100CA0008083E0913D02F0913E02808188608083E4
:100CB000E0913D02F0913E02808180688083E09166
:100CC0003D02F0913E0280818F7D80838E01095F1D
:100CD0001F4F8BE292E00E94FE01892B09F47CC039
:100CE0000E9436044B015C018AE0C82ED12CE12C15
:100CF000F12C0E943604681979098A099B09683E1B
:100D0000734081059105A8F321E0C21AD108E108DA
:100D1000F10888EE880E83E0981EA11CB11CC11456
:100D2000D104E104F10429F78BE292E00E94DC0196
:100D30001A8219821C821B821E821D828F83188652
:100D4000F80101900020E9F73197AF01401B510BEA
:100D5000B801CE0101960E9474048091C80290915E
:100D6000C902009711F169817A8161157105D9F085
:100D70004091CA025091CB022D813E814217530708
:100D800090F00E94E6098D819E819093CD02809320
:100D9000CC021E821D8289819A81009709F499CF25
:100DA0000E946A0896CF0E946A0889819A8190936E
:100DB000C9028093C8028B819C819093CB0280935F
:100DC000CA028D819E819093CD028093CC021A82BB
:100DD00019821C821B82DDCF8091CC029091CD02C2
:100DE000892B09F475C088E192E00E945B04882396
:100DF00009F16FEF70E08BE00E94600360E08AE031
:100E00000E94D4026FEF70E089E00E94600360E00E
:100E100086E00E94D4026FEF70E085E00E946003DC
:100E200060E083E00E94D40260E087E00E94D40288
:100E300060E07EC08AE192E00E945B048823E1F0DA
:100E400060E08BE00E94D40264E670E08AE00E94D9
:100E5000600360E089E00E94D40264E670E086E00E
:100E60000E94600360E085E00E94D40264E670E0C6
:100E700083E00E946003D8CF8CE192E00E945B0483
:100E8000882389F160E08BE00E94D40260E08AE070
:100E90000E94D4026FEF70E089E00E94600360E07E
:100EA00086E00E94D4026FEF70E085E00E9460034C
:100EB00060E083E00E94D40260E087E00E94D402F8
:100EC00060E084E00E94D40261E082E00E94D402EB
:100ED00050E040E069E172E088EC92E00E94740426
:100EE0000E94A302F6CE8EE192E00E945B0488236A
:100EF00021F164E670E08BE00E94600360E08AE02C
:100F00000E94D40260E089E00E94D40260E086E0A2
:100F10000E94D40264E670E085E00E94600360E015
:100F200083E00E94D40260E087E00E94D40261E086
:100F300084E00E94D40260E0C8CF80E292E00E9488
:100F40005B04882329F260E08BE00E94D40260E019
:100F50008AE00E94D40260E089E00E94D40260E04E
:100F600086E00E94D40260E085E00E94D40260E046
:100F700083E00E94D40261E058CF8091C802909132
:100F8000C902009711F00C946A080895EE0FFF1F34
:100F9000881F8BBF0790F691E02D19940F931F9334
:100FA000CF93DF938230910510F482E090E0E091DE
:100FB000D002F091D10230E020E0B0E0A0E0309724
:100FC00099F42115310509F44AC0281B390B243046
:100FD0003105D8F58A819B816115710589F1FB0185
:100FE00093838283FE0111C040815181028113816C
:100FF00048175907E0F04817590799F4109761F01E
:1010000012960C93129713961C933296CF01DF9190
:10101000CF911F910F9108950093D0021093D102A8
:10102000F4CF2115310551F04217530738F0A901CB
:10103000DB019A01BD01DF01F801C1CFEF01F9CF5A
:101040009093D1028093D002CDCFFE01E20FF31F27
:10105000819391932250310939832883D7CF2091EE
:10106000CE023091CF02232B41F420910202309125
:1010700003023093CF022093CE02209100023091E0
:1010800001022115310541F42DB73EB7409104020C
:1010900050910502241B350BE091CE02F091CF0256
:1010A000E217F307A0F42E1B3F0B2817390778F03F
:1010B000AC014E5F5F4F2417350748F04E0F5F1F9E
:1010C0005093CF024093CE02819391939FCFF0E053
:1010D000E0E09CCFCF93DF930097E9F0FC013297DB
:1010E00013821282A091D002B091D102ED0130E0C2
:1010F00020E01097A1F420813181820F931F20916D
:10110000CE023091CF022817390709F061C0F09361
:10111000CF02E093CE02DF91CF910895EA01CE177E
:10112000DF07E8F54A815B819E0141155105B1F762
:10113000E901FB83EA8349915991C40FD51FEC174C
:10114000FD0761F4808191810296840F951FE9016A
:1011500099838883828193819B838A83F0E0E0E096
:1011600012968D919C9113970097B9F52D913C9112
:101170001197CD010296820F931F2091CE023091DC
:10118000CF022817390739F6309751F51092D1025E
:101190001092D002B093CF02A093CE02BCCFD383E3
:1011A000C28340815181840F951FC817D90761F40C
:1011B0004E5F5F4F88819981480F591F518340834B
:1011C0008A819B81938382832115310509F0B0CFF9
:1011D000F093D102E093D0029ECFFD01DC01C0CF9D
:1011E00013821282D7CF4F925F926F927F928F922B
:1011F0009F92AF92BF92CF92DF92EF92FF920F93A6
:101200001F93CF93DF938C01009799F4CB01DF916B
:10121000CF911F910F91FF90EF90DF90CF90BF90F3
:10122000AF909F908F907F906F905F904F900C94B5
:10123000CE07FC01E60FF71F9C0122503109E2178F
:10124000F30708F4AEC0D901CD91DC911197C61710
:10125000D70720F1C530D10578F0CE010497861765
:10126000970750F0C61BD70B2297C193D1936D936C
:101270007C93CF010E946A08C801DF91CF911F9132
:101280000F91FF90EF90DF90CF90BF90AF909F9025
:101290008F907F906F905F904F9008955B01AC1A94
:1012A000BD0A4C018C0E9D1EA091D002B091D102BE
:1012B000512C412CF12CE12C109731F58091CE026C
:1012C0009091CF028815990509F05CC04616570623
:1012D00008F058C08091000290910102009741F4FB
:1012E0008DB79EB74091040250910502841B950B67
:1012F000E817F90708F055C0F093CF02E093CE024B
:10130000F90171836083B8CF8D919C9111971296EA
:101310006C90129713967C901397A815B90559F500
:101320006C0142E0C40ED11CCA14DB0420F1AC01F4
:101330004A195B09DA011296159780F0628273826E
:1013400051834083D9016D937C93E114F10471F0D2
:10135000D7011396FC93EE9312978ECF22968C0FA3
:101360009D1FF90191838083F301EFCFF093D102A8
:10137000E093D00281CF4816590608F42C017D0174
:10138000D3019ACFCB010E94CE077C01009749F090
:10139000AE01B8010E94D409C8010E946A08870101
:1013A0006BCF10E000E068CFFB01DC0102C00190D0
:1013B0000D9241505040D8F70895FB01DC018D910A
:1013C000019080190110D9F3990B0895FB01DC01FC
:1013D00001900D920020E1F7089511E0CCE4D1E0F6
:1013E00000E006C0802FFE010E94C6072196011D65
:0E13F000CD34D10780E00807A9F7F894FFCFAD
:1013FE000000D2028000000000003602A001CD01E4
:10140E008302FE01DC01F0013100320033003400B2
:02141E00350097
:00000001FF
