:100000000C9439010C944D010C944D010C944D014C
:100010000C944D010C944D010C944D010C944D0128
:100020000C944D010C944D010C944D010C944D0118
:100030000C944D010C944D010C944D010C944D0108
:100040000C944D010C944D010C944D010C944D01F8
:100050000C944D010C944D010C944D010C9427030C
:100060000C944D010C944D010C944D010C944D01D8
:100070000C944D010C944D010C944D010C944D01C8
:100080000C944D010C944D010C944D010C944D01B8
:100090000C944D010C944D010C944D010C944D01A8
:1000A0000C944D010C944D010C944D010C944D0198
:1000B0000C944D010C944D010C944D010C944D0188
:1000C0000C944D010C944D010C944D010C944D0178
:1000D0000C944D010C944D010C944D010C944D0168
:1000E0000C944D010C945C020C94CB020C94B7025E
:1000F0000C94EA010C949E010C9452020C94C101E0
:100100000C94CA010C94E2010C94CE010C948A0266
:100110000C94D4010C9464020C9480020C94F001B1
:100120000C94A3020C94A3010C94B9010C94B50196
:100130000C9476020C94DC010C9448020C94BD01E2
:100140000C94AD020C9499020C9439020C94C102E7
:100150000C94F4010C94E6010C9431020C943E02D0
:100160000C94C4010C94D8010C946C0200000A0B8E
:1001700002090C0D0E080703040100000000000036
:10018000000000000000000000000000000000006F
:10019000000000000000000012111000000000002C
:1001A000000000000000000000000000000000004F
:1001B000000000002200250028002B002E00310046
:1001C000340002010000050108010B0100002100BC
:1001D000240027002A002D00300033000101000018
:1001E000040107010A0105050505070508080808B7
:1001F000020202020A0A08080404040401010101BF
:1002000001010101030303030303030304070707B9
:100210000C0C0C0C0C0C0C0C02020202060606065E
:10022000060606060B0B0B0B0B0B0B0B010210202B
:10023000200808102040102040800201020108041C
:1002400002010102040810204080804020100804B0
:100250000201800402018040201008040201080409
:10026000020101020408102040800102040810204D
:10027000408011241FBECFEFD1E2DEBFCDBF00E032
:100280000CBF22E0A0E0B2E001C01D92A930B2078D
:10029000E1F70E9471030C94E8040C94000090E0D4
:1002A000FC01E45DFD4F24918A519E4FFC01849135
:1002B000882399F090E0880F991FFC01E453FE4FCA
:1002C000A591B491FC01EE54FE4F859194918FB7A6
:1002D000F894EC91E22BEC938FBF0895282F30E037
:1002E000F901E459FE4F9491F901E45DFD4F449109
:1002F0002A513E4FF9012491222309F435C0992354
:1003000011F191509231F8F4E92FF0E08827E45789
:10031000FE4F8F4F0C94E004BD01C1019E01B50159
:10032000B901A301C401CA01CE01D401D801DC0185
:10033000E201E601A301EA01F001F40180918000ED
:100340008F7780938000E22FF0E0EE0FFF1FEE54D6
:10035000FE4FA591B4918FB7F894EC91611148C00C
:1003600040954E234C938FBF0895809180008F7DE0
:10037000E8CF80918000877FE4CF84B58F7784BDFC
:10038000E2CF84B58F7DFBCF8091B0008F778093D3
:10039000B000D9CF8091B0008F7DF9CF80919000CF
:1003A0008F7780939000CFCF809190008F7DF9CF91
:1003B00080919000877FF5CF8091A0008F77809308
:1003C000A000C1CF8091A0008F7DF9CF8091A000C7
:1003D000877FF5CF809120018F7780932001B3CF65
:1003E000809120018F7DF9CF80912001877FF5CF0B
:1003F0004E2BB8CF1F93CF93DF93182FEB010E94A2
:100400004F01209739F460E0812FDF91CF911F9148
:100410000C946E01CF3FD10511F461E0F5CFE12FCF
:10042000F0E0E459FE4FE491E150E23108F0B3C04E
:10043000F0E08827E15EFD4F8F4F0C94E00431021D
:1004400039023E0248025202CB025C0264026C0294
:10045000760280028A029902A302CB02AD02B702A1
:10046000C10284B5806884BDC7BDDF91CF911F9163
:10047000089584B5806284BDC8BDF7CF80918000A7
:10048000806880938000D0938900C0938800EDCF6E
:1004900080918000806280938000D0938B00C09315
:1004A0008A00E3CF80918000886080938000D093A1
:1004B0008D00C0938C00D9CF8091B000806880936C
:1004C000B000C093B300D1CF8091B0008062809320
:1004D000B000C093B400C9CF809190008068809331
:1004E0009000D0939900C0939800BFCF8091900066
:1004F000806280939000D0939B00C0939A00B5CF08
:1005000080919000886080939000D0939D00C0936C
:100510009C00ABCF8091A00080688093A000809168
:10052000A0008F7B8093A000D093A900C093A80067
:100530009CCF8091A00080628093A000D093AB00FC
:10054000C093AA0092CF8091A00088608093A00001
:10055000D093AD00C093AC0088CF8091200180681B
:1005600080932001D0932901C09328017ECF8091F0
:100570002001806280932001D0932B01C0932A0137
:1005800074CF80912001886080932001D0932D0149
:10059000C0932C016ACFC038D1050CF03ECF33CFC9
:1005A0003FB7F8948091050290910602A09107024E
:1005B000B091080226B5A89B05C02F3F19F00196FF
:1005C000A11DB11D3FBFBA2FA92F982F8827BC01AD
:1005D000CD01620F711D811D911D42E0660F771FD5
:1005E000881F991F4A95D1F708958F929F92AF92D5
:1005F000BF92CF92DF92EF92FF924B015C010E947B
:10060000D0026B017C010E94D0026C197D098E0919
:100610009F09683E734081059105A8F321E0821A85
:100620009108A108B10888EEC80E83E0D81EE11C2D
:10063000F11C81149104A104B10429F7FF90EF90FB
:10064000DF90CF90BF90AF909F908F9008951F92B2
:100650000F920FB60F9211242F933F938F939F9376
:10066000AF93BF938091010290910202A091030287
:10067000B09104023091000223E0230F2D3758F58A
:100680000196A11DB11D2093000280930102909359
:100690000202A0930302B09304028091050290919C
:1006A0000602A0910702B09108020196A11DB11D9A
:1006B0008093050290930602A0930702B09308026C
:1006C000BF91AF919F918F913F912F910F900FBE4E
:1006D0000F901F90189526E8230F0296A11DB11DBB
:1006E000D2CF789484B5826084BD84B5816084BDA6
:1006F00085B5826085BD85B5816085BD80916E00C0
:10070000816080936E0010928100809181008260F0
:10071000809381008091810081608093810080912D
:1007200080008160809380008091B100846080931C
:10073000B1008091B00081608093B0008091910001
:1007400082608093910080919100816080939100FC
:10075000809190008160809390008091A1008260E0
:100760008093A1008091A10081608093A10080917D
:10077000A00081608093A00080912101826080931D
:1007800021018091210181608093210180912001CC
:1007900081608093200180917A00846080937A0048
:1007A00080917A00826080937A0080917A008160E3
:1007B00080937A0080917A00806880937A0010920A
:1007C000C1008BE00E944F018AE00E944F0189E046
:1007D0000E944F0186E00E944F0185E00E944F0178
:1007E00083E00E944F0187E00E944F0184E00E9455
:1007F0004F0182E00E944F01C0E0D0E06FEF70E057
:100800008BE00E94FA0160E08AE00E946E016FEFC7
:1008100070E089E00E94FA0160E086E00E946E01CB
:100820006FEF70E085E00E94FA0160E083E00E94D3
:100830006E0160E087E00E946E0160E084E00E944B
:100840006E0160E082E00E946E0160ED77E080E082
:1008500090E00E94F50260E08BE00E946E0164E689
:1008600070E08AE00E94FA0160E089E00E946E0177
:1008700064E670E086E00E94FA0160E085E00E9494
:100880006E0164E670E083E00E94FA0160E087E0B8
:100890000E946E0160E084E00E946E0160E082E0F0
:1008A0000E946E0160ED77E080E090E00E94F5022A
:1008B00060E08BE00E946E0160E08AE00E946E01C1
:1008C00060E089E00E946E0160E086E00E946E01B7
:1008D00060E085E00E946E0160E083E00E946E01AE
:1008E00061E087E00E946E0160E084E00E946E019A
:1008F00060E082E00E946E0168EE73E080E090E0CC
:100900000E94F50264E670E08BE00E94FA0160E06C
:100910008AE00E946E0160E089E00E946E0160E062
:1009200086E00E946E0164E670E085E00E94FA01B4
:1009300060E083E00E946E0160E087E00E946E014B
:1009400061E084E00E946E0160E082E00E946E013E
:1009500068EE73E080E090E00E94F50260E08BE0DA
:100960000E946E0160E08AE00E946E016FEF70E00D
:1009700089E00E94FA0160E086E00E946E016FEF5C
:1009800070E085E00E94FA0160E083E00E946E0161
:1009900060E087E00E946E0160E084E00E946E01EA
:1009A00061E082E00E946E0168EE73E080E090E01A
:1009B0000E94F502209709F421CF0E9400001ECF6B
:1009C000EE0FFF1F881F8BBF0790F691E02D199443
:0409D000F894FFCFC9
:00000001FF
