:100000000C9462000C948A000C948A000C948A0070
:100010000C948A000C948A000C948A000C948A0038
:100020000C948A000C948A000C948A000C948A0028
:100030000C948A000C948A000C948A000C948A0018
:100040000C944E030C948A000C94BE030C949803F9
:100050000C948A000C948A000C948A000C948A00F8
:100060000C948A000C948A000000000024002700F1
:100070002A0000000000250028002B0000000000DE
:1000800023002600290004040404040404040202DA
:100090000202020203030303030301020408102007
:1000A0004080010204081020010204081020000012
:1000B0000008000201000003040700000000000027
:1000C0000000E90411241FBECFEFD8E0DEBFCDBF92
:1000D00011E0A0E0B1E0EAEEFAE002C005900D9276
:1000E000A832B107D9F721E0A8E2B1E001C01D9222
:1000F000A63DB207E1F710E0C2E6D0E004C02197C8
:10010000FE010E946D05C136D107C9F70E94F003B8
:100110000C9473050C940000FC01538D448D252F25
:1001200030E0842F90E0821B930B541710F0CF9691
:10013000089501970895FC01918D828D981761F0C3
:10014000A28DAE0FBF2FB11D5D968C91928D9F5FDA
:100150009F73928F90E008958FEF9FEF0895FC01B9
:10016000918D828D981731F0828DE80FF11D858D6C
:1001700090E008958FEF9FEF0895FC01918D228DFF
:10018000892F90E0805C9F4F821B91098F73992784
:100190000895FC01A48DA80FB92FB11DA35ABF4F1C
:1001A0002C91848D90E001968F739927848FA68976
:1001B000B7892C93A089B1898C91837080648C93CA
:1001C000938D848D981306C00288F389E02D808179
:1001D0008F7D80830895EF92FF920F931F93CF93AB
:1001E000DF93EC0181E0888F9B8D8C8D98131AC072
:1001F000E889F989808185FF15C09FB7F894EE8959
:10020000FF896083E889F9898081837080648083B5
:100210009FBF81E090E0DF91CF911F910F91FF9000
:10022000EF900895F62E0B8D10E00F5F1F4F0F73A8
:100230001127E02E8C8D8E110CC00FB607FCFACF63
:10024000E889F989808185FFF5CFCE010E94C90038
:10025000F1CFEB8DEC0FFD2FF11DE35AFF4FF08234
:100260009FB7F8940B8FEA89FB8980818062CFCF9A
:10027000CF93DF93EC01888D8823B9F0AA89BB89DD
:10028000E889F9898C9185FD03C0808186FD0DC0C8
:100290000FB607FCF7CF8C9185FFF2CF808185FFE9
:1002A000EDCFCE010E94C900E9CFDF91CF91089533
:1002B00089E391E00E94BD0021E0892B09F420E050
:1002C000822F089580E090E0892B29F00E94580148
:1002D00081110C9400000895AF92BF92CF92DF92EB
:1002E000EF92FF920F931F93CF93DF936C017B01EB
:1002F0008B01040F151FEB015E01AE18BF08C0177C
:10030000D10759F06991D601ED91FC910190F081EE
:10031000E02DC6010995892B79F7C501DF91CF91B1
:100320001F910F91FF90EF90DF90CF90BF90AF9013
:100330000895833081F028F4813099F08230A9F05B
:1003400008958730A9F08830C9F08430B1F48091E5
:1003500080008F7D03C0809180008F778093800024
:10036000089584B58F7784BD089584B58F7DFBCFC4
:100370008091B0008F778093B00008958091B00095
:100380008F7DF9CFCF93DF93282F30E0F901E2552D
:10039000FF4F8491F901E656FF4FD491F901EA57D6
:1003A000FF4FC491CC23A1F081110E949901EC2F41
:1003B000F0E0EE0FFF1FE458FF4FA591B491EC91D0
:1003C000ED2381E090E009F480E0DF91CF91089582
:1003D00080E090E0FACF1F93CF93DF93282F30E097
:1003E000F901E255FF4F8491F901E656FF4FD49190
:1003F000F901EA57FF4FC491CC23A9F0162F8111C0
:100400000E949901EC2FF0E0EE0FFF1FEE58FF4F16
:10041000A591B4918FB7F894EC91111108C0D095C3
:10042000DE23DC938FBFDF91CF911F910895DE2BE8
:10043000F8CFCF93DF9390E0FC01E656FF4F249175
:100440008A579F4FFC0184918823D1F090E0880F58
:10045000991FFC01E859FF4FA591B491FC01EE589A
:10046000FF4FC591D49161110EC09FB7F8948C9144
:10047000E22FE0958E238C932881E223E8839FBFAF
:10048000DF91CF9108958FB7F894EC91E22BEC9324
:100490008FBFF6CF1F93CF93DF93182FEB0161E04F
:1004A0000E941902209739F460E0812FDF91CF91EB
:1004B0001F910C94EB01CF3FD10511F461E0F5CF12
:1004C000E12FF0E0E255FF4FE491E33031F140F4E9
:1004D000E130B1F0E230E1F0C038D1057CF7E4CF93
:1004E000E73029F1E83059F1E430B1F7809180002C
:1004F000806280938000D0938B00C0938A0004C0F8
:1005000084B5806884BDC7BDDF91CF911F910895E8
:1005100084B5806284BDC8BDF7CF809180008068BB
:1005200080938000D0938900C0938800EDCF8091A4
:10053000B00080688093B000C093B300E5CF809195
:10054000B00080628093B000C093B400DDCF8E30E5
:1005500008F08E508770806480937C0080917A00D0
:10056000806480937A0080917A0086FDFCCF809130
:100570007800909179000895FC0101900020E9F73E
:100580003197AF01481B590BBC0189E391E00C94F2
:100590006C018F929F92AF92BF92CF92DF92EF92B7
:1005A000FF920F931F93CF93DF93CDB7DEB7A19741
:1005B0000FB6F894DEBF0FBECDBF6C01990FEE08E9
:1005C000FF08F7FE47C06DE289E391E00E94EB006F
:1005D0008C0122273327A9012C193D094E095F09F7
:1005E00019A2CE0181967C019AE0892E912CA12C32
:1005F000B12CCA01B901A50194010E943505605DC5
:10060000F70162937F01211531054105510589F7F5
:1006100090E080E0309719F0CF010E94BC02080FF3
:10062000191F82E191E00E94BC02800F911FA196E8
:100630000FB6F894DEBF0FBECDBFDF91CF911F91F3
:100640000F91FF90EF90DF90CF90BF90AF909F9071
:100650008F900895A701960119A28E010F5D1F4F7B
:100660008AE0C82ED12CE12CF12CCA01B901A701D6
:1006700096010E943505605DF80162938F01211596
:1006800031054105510589F7309729F0CF010E94C6
:10069000BC028C01C6CF10E000E0C3CF1F920F92C6
:1006A0000FB60F9211242F933F938F939F93AF9385
:1006B000BF938091350190913601A0913701B0919F
:1006C00038013091340123E0230F2D3758F501967E
:1006D000A11DB11D20933401809335019093360103
:1006E000A0933701B093380180913001909131018E
:1006F000A0913201B09133010196A11DB11D8093EB
:10070000300190933101A0933201B0933301BF9136
:10071000AF919F918F913F912F910F900FBE0F90AE
:100720001F90189526E8230F0296A11DB11DD2CF68
:100730001F920F920FB60F9211242F933F934F9356
:100740005F936F937F938F939F93AF93BF93EF9339
:10075000FF9389E391E00E94C900FF91EF91BF915F
:10076000AF919F918F917F916F915F914F913F9149
:100770002F910F900FBE0F901F9018951F920F9200
:100780000FB60F9211242F938F939F93EF93FF93A4
:10079000E0914901F0914A018081E0914F01F0918F
:1007A000500182FD1BC09081809152018F5F8F7339
:1007B00020915301821741F0E0915201F0E0E75C93
:1007C000FE4F958F80935201FF91EF919F918F91F2
:1007D0002F910F900FBE0F901F9018958081F4CF2E
:1007E000789484B5826084BD84B5816084BD85B50C
:1007F000826085BD85B5816085BD80916E00816018
:1008000080936E00109281008091810082608093BD
:1008100081008091810081608093810080918000BF
:100820008160809380008091B10084608093B100EA
:100830008091B00081608093B00080917A008460E4
:1008400080937A0080917A00826080937A00809110
:100850007A00816080937A0080917A00806880932A
:100860007A001092C10061E085E00E94190261E007
:1008700086E00E94190260E080912E010E94190218
:1008800060E080912C010E94190261E08DE00E94DD
:10089000190260E085E00E94EB0160E086E00E94C2
:1008A000EB01CC24CA9483E0D82EE12CF12C00E09B
:1008B00010E083E00E94C201EC0190932F0180932D
:1008C0002E0184E00E94C20190932D0180932C019F
:1008D00080E0219709F05CC00E94A702EC012FEF95
:1008E00030E0DC010E946605A70196010E94160512
:1008F000490130932B0120932A0160E08DE00E9492
:10090000EB01B40185E00E944A02CE010E94C902B7
:1009100085E191E00E94BC0282E191E00E94BC026C
:1009200080912C0190912D01019709F041C080E048
:100930000E94A702EC012FEF30E0DC010E94660567
:10094000A70196010E9416054901309329012093C1
:10095000280160E08DE00E94EB01B40186E00E9476
:100960004A02CE010E94C9028DE191E00E94BC02C0
:1009700082E191E00E94BC020115110509F499CFB2
:100980000E945801882309F494CF0E94000091CF5F
:100990000E94A70210922B0110922A0161E08DE0C3
:1009A0000E94EB0170E060E085E00E944A02B8CF4F
:1009B00080E00E94A702109229011092280161E0B4
:1009C0008DE00E94EB0170E060E086E00E944A0248
:1009D000D3CFE9E3F1E01382128288EE93E0A0E046
:1009E000B0E084839583A683B78384E091E091830C
:1009F000808385EC90E09587848784EC90E09787EE
:100A0000868780EC90E0918B808B81EC90E0938BDB
:100A1000828B82EC90E0958B848B86EC90E0978BB8
:100A2000868B118E128E138E148E0895052E97FBD1
:100A30001EF400940E942D0557FD07D00E94350535
:100A400007FC03D04EF40C942D055095409530953D
:100A500021953F4F4F4F5F4F08959095809570952A
:100A600061957F4F8F4F9F4F0895A1E21A2EAA1BC9
:100A7000BB1BFD010DC0AA1FBB1FEE1FFF1FA2174E
:100A8000B307E407F50720F0A21BB30BE40BF50B4B
:100A9000661F771F881F991F1A9469F760957095D4
:100AA000809590959B01AC01BD01CF010895A29F57
:100AB000B001B39FC001A39F700D811D1124911D32
:100AC000B29F700D811D1124911D08950E9457053C
:100AD000B7FF0895821B930B0895EE0FFF1F05903B
:0A0AE000F491E02D0994F894FFCF83
:100AEA0000000000EB006C018C003801BD009B0087
:100AFA00AF000D0A006465726563686100697A7106
:080B0A00756965726461000069
:00000001FF
