:100000000C944D010C947E010C947E010C947E01A5
:100010000C947E010C947E010C947E010C947E0164
:100020000C947E010C947E010C947E010C947E0154
:100030000C947E010C947E010C947E010C947E0144
:100040000C947E010C947E010C947E010C947E0134
:100050000C947E010C947E010C947E010C9413058B
:100060000C947E010C94DD040C94B3040C947E017A
:100070000C947E010C947E010C947E010C947E0104
:100080000C947E010C947E010C947E010C947E01F4
:100090000C947E010C947E010C947E010C947E01E4
:1000A0000C947E010C947E010C947E010C947E01D4
:1000B0000C947E010C947E010C947E010C947E01C4
:1000C0000C947E010C947E010C947E010C947E01B4
:1000D0000C947E010C947E010C947E010C947E01A4
:1000E0000C947E010C94C2030C945A030C943104BA
:1000F0000C94FE010C9448030C941D040C94FF0313
:100100000C9434030C94F0010C94CA030C945D0518
:100110000C9423030C941F030C941B030C945003A6
:100120000C9483020C943E030C943A030C949F03AA
:100130000C9456030C94DC030C9409030C94CD012D
:100140000C94A0010C9404030C94A4030C9442039B
:100150000C94D2030C94F0030C94E0070C949703D6
:100160000C94B8030C94DC010C94E6030C94AE03DD
:100170000C9436020C9413040C9427030C942A0359
:100180000C9409040C944C030C9430030C94270435
:1001900000000A0B02090C0D0E0807030401000001
:1001A000000000000000000000000000000000004F
:1001B000000000000000000000000000121110000C
:1001C000000000000000000000000000000000002F
:1001D00000000000000000002200250028002B0085
:1001E0002E003100340002010000050108010B015E
:1001F00000002100240027002A002D0030003300D9
:1002000001010000040107010A01050505050705B4
:1002100008080808020202020A0A08080404040482
:1002200001010101010101010303030303030303AE
:10023000040707070C0C0C0C0C0C0C0C020202023D
:1002400006060606060606060B0B0B0B0B0B0B0B26
:1002500001021020200808102040102040800201D8
:1002600002010804020101020408102040808040BD
:1002700020100804020180040201804020100804BC
:10028000020108040201010204081020408001025A
:100290000408102040805D05E00711241FBECFEF49
:1002A000D1E2DEBFCDBF00E00CBF22E0A8E2B2E0A9
:1002B00001C01D92A83DB207E1F712E0A0E0B2E054
:1002C000E4E4F4E100E00BBF02C007900D92A83215
:1002D000B107D9F711E0CCE4D1E000E006C02197E6
:1002E0000109802FFE010E94E907CB34D10780E08D
:1002F0000807A9F70E9498050C94100A0C940000B6
:1003000090E0FC01E05BFD4F2491865F9D4FFC0176
:100310008491882399F090E0880F991FFC01E051A7
:10032000FE4FA591B491FC01EA52FE4F8591949144
:100330008FB7F894EC91E22BEC938FBF089508955A
:10034000AF92BF92CF92DF92EF92FF920F931F93E3
:10035000CF93DF936C017B018B01040F151FEB0121
:100360005E01AE18BF08C017D10759F06991D601D8
:10037000ED91FC910190F081E02DC6011995892B3A
:1003800079F7C501DF91CF911F910F91FF90EF9009
:10039000DF90CF90BF90AF900895FC01538D448DB6
:1003A000252F30E0842F90E0821B930B541710F020
:1003B000CF96089501970895FC01918D828D98172D
:1003C00061F0A28DAE0FBF2FB11D5D968C91928D05
:1003D0009F5F9F73928F90E008958FEF9FEF089536
:1003E000FC01918D828D981731F0828DE80FF11DFF
:1003F000858D90E008958FEF9FEF0895FC01918D1A
:10040000228D892F90E0805C9F4F821B91098F7312
:100410009927089581E392E00E94FE0121E0892B53
:1004200009F420E0822F0895FC01A48DA80FB92FB4
:10043000B11DA35ABF4F2C91848D90E001968F730C
:100440009927848FA689B7892C93A089B1898C912B
:10045000837080648C93938D848D981306C002887A
:10046000F389E02D80818F7D80830895EF92FF9244
:100470000F931F93CF93DF93EC0181E0888F9B8DC7
:100480008C8D98131AC0E889F989808185FF15C081
:100490009FB7F894EE89FF896083E889F9898081A4
:1004A0008370806480839FBF81E090E0DF91CF9173
:1004B0001F910F91FF90EF900895F62E0B8D10E095
:1004C0000F5F1F4F0F731127E02E8C8D8E110CC004
:1004D0000FB607FCFACFE889F989808185FFF5CF4F
:1004E000CE010E941402F1CFEB8DEC0FFD2FF11D18
:1004F000E35AFF4FF0829FB7F8940B8FEA89FB898C
:1005000080818062CFCFCF93DF93EC01888D8823E9
:10051000B9F0AA89BB89E889F9898C9185FD03C066
:10052000808186FD0DC00FB607FCF7CF8C9185FF4B
:10053000F2CF808185FFEDCFCE010E941402E9CF7A
:10054000DF91CF91089580E090E0892B29F00E94FF
:100550000A0281110E94000080E090E0892B49F09E
:1005600080E090E0892B29F00E94000081110E9418
:10057000000080E090E0892B49F080E090E0892B3A
:1005800029F00E94000081110E94000080E090E0AC
:10059000892B49F080E090E0892B29F00E9400002F
:1005A00081110C9400000895282F30E0F901E057E4
:1005B000FE4F9491F901E05BFD4F4491265F3D4F62
:1005C000F9012491222309F435C0992311F19150A6
:1005D0009231F8F4E92FF0E08827EE50FD4F8F4F6D
:1005E0000C94E9072303270304031B031F030903D8
:1005F0002A03300334033A033E03420348034C0307
:100600000903500356035A03809180008F7780932B
:100610008000E22FF0E0EE0FFF1FEA52FE4FA5919F
:10062000B4918FB7F894EC91611148C040954E2376
:100630004C938FBF0895809180008F7DE8CF80918B
:100640008000877FE4CF84B58F7784BDE2CF84B507
:100650008F7DFBCF8091B0008F778093B000D9CF92
:100660008091B0008F7DF9CF809190008F7780933B
:100670009000CFCF809190008F7DF9CF8091900036
:10068000877FF5CF8091A0008F778093A000C1CFA6
:100690008091A0008F7DF9CF8091A000877FF5CF5A
:1006A000809120018F7780932001B3CF809120012A
:1006B0008F7DF9CF80912001877FF5CF4E2BB8CF6A
:1006C0001F93CF93DF93182FEB010E948001209797
:1006D00039F460E0812FDF91CF911F910C94D40207
:1006E000CF3FD10511F461E0F5CFE12FF0E0E05705
:1006F000FE4FE491E150E23108F0B3C0F0E088270A
:10070000EB57FC4F8F4F0C94E90797039F03A4030B
:10071000AE03B8033104C203CA03D203DC03E60309
:10072000F003FF030904310413041D04270484B5F6
:10073000806884BDC7BDDF91CF911F91089584B5B6
:10074000806284BDC8BDF7CF8091800080688093AF
:100750008000D0938900C0938800EDCF8091800005
:10076000806280938000D0938B00C0938A00E3CF97
:1007700080918000886080938000D0938D00C0932A
:100780008C00D9CF8091B00080688093B000C09376
:10079000B300D1CF8091B00080628093B000C0934D
:1007A000B400C9CF80919000806880939000D0936E
:1007B0009900C0939800BFCF809190008062809391
:1007C0009000D0939B00C0939A00B5CF8091900089
:1007D000886080939000D0939D00C0939C00ABCF25
:1007E0008091A00080688093A0008091A0008F7B02
:1007F0008093A000D093A900C093A8009CCF8091C3
:10080000A00080628093A000D093AB00C093AA00A8
:1008100092CF8091A00088608093A000D093AD001B
:10082000C093AC0088CF8091200180688093200124
:10083000D0932901C09328017ECF8091200180624E
:1008400080932001D0932B01C0932A0174CF809113
:100850002001886080932001D0932D01C0932C014A
:100860006ACFC038D1050CF03ECF33CF3FB7F894F4
:1008700080912D0290912E02A0912F02B091300212
:1008800026B5A89B05C02F3F19F00196A11DB11DEB
:100890003FBFBA2FA92F982F8827BC01CD01620F27
:1008A000711D811D911D42E0660F771F881F991FE2
:1008B0004A95D1F708952091D2023091D302232B8B
:1008C00039F421E0FC018081882361F020E00AC036
:1008D000BC018091CE029091CF020E94000A21E0DB
:1008E000892BA1F7822F0895EF92FF920F931F9308
:1008F000CF93DF93EC017B018A0188819981009776
:1009000029F02A813B812417350788F4B8016F5FED
:100910007F4F0E941609009791F0998388831B836B
:100920000A832C813D81232B11F4FC0110821D834D
:100930000C83B701888199810E94090A0CC08881C3
:100940009981009711F00E948D08198218821D82EA
:100950001C821B821A82CE01DF91CF911F910F91D1
:10096000FF90EF9008951F920F920FB60F921124EF
:100970000BB60F922F933F934F935F936F937F9399
:100980008F939F93AF93BF93EF93FF9381E392E095
:100990000E941402FF91EF91BF91AF919F918F91AF
:1009A0007F916F915F914F913F912F910F900BBE6F
:1009B0000F900FBE0F901F9018951F920F920FB6B9
:1009C0000F9211240BB60F922F938F939F93EF9357
:1009D000FF93E0914102F09142028081E091470251
:1009E000F091480282FD1DC0908180914A028F5F84
:1009F0008F7320914B02821741F0E0914A02F0E0A0
:100A0000EF5CFD4F958F80934A02FF91EF919F918C
:100A10008F912F910F900BBE0F900FBE0F901F90D4
:100A200018958081F2CF1F920F920FB60F9211246A
:100A30002F933F938F939F93AF93BF9380912902FE
:100A400090912A02A0912B02B0912C0230912802A1
:100A500023E0230F2D3758F50196A11DB11D2093DA
:100A600028028093290290932A02A0932B02B0932C
:100A70002C0280912D0290912E02A0912F02B09114
:100A800030020196A11DB11D80932D0290932E027C
:100A9000A0932F02B0933002BF91AF919F918F919D
:100AA0003F912F910F900FBE0F901F90189526E841
:100AB000230F0296A11DB11DD2CFE1E3F2E0138214
:100AC000128288EE93E0A0E0B0E084839583A68351
:100AD000B7838CE092E09183808385EC90E09587EA
:100AE000848784EC90E09787868780EC90E0918BF8
:100AF000808B81EC90E0938B828B82EC90E0958BE5
:100B0000848B86EC90E0978B868B118E128E138EE1
:100B1000148EEEECF2E011821082138212821582A2
:100B2000148250E040E06BE172E0CF010C94740459
:100B3000CF93DF9300D000D01F921F92CDB7DEB7C6
:100B4000789484B5826084BD84B5816084BD85B5A8
:100B5000826085BD85B5816085BD80916E008160B4
:100B600080936E001092810080918100826080935A
:100B7000810080918100816080938100809180005C
:100B80008160809380008091B10084608093B10087
:100B90008091B00081608093B0008091910082606C
:100BA0008093910080919100816080939100809169
:100BB00090008160809390008091A100826080937A
:100BC000A1008091A10081608093A1008091A0008C
:100BD00081608093A0008091210182608093210137
:100BE00080912101816080932101809120018160A9
:100BF0008093200180917A00846080937A008091B4
:100C00007A00826080937A0080917A00816080937C
:100C10007A0080917A00806880937A001092C100F7
:100C20008DE00E9480018CE00E9480018BE00E9498
:100C300080018AE00E94800189E00E94800186E0B4
:100C40000E94800185E00E94800183E00E94800173
:100C500087E00E94800184E00E94800182E00E947F
:100C60008001E0914102F091420282E08083E091B4
:100C70003D02F0913E021082E0913F02F09140026D
:100C80008FEC808310924902E0914502F091460278
:100C900086E08083E0914302F0914402808180618C
:100CA0008083E0914302F0914402808188608083D8
:100CB000E0914302F0914402808180688083E0915A
:100CC0004302F091440280818F7D80838E01095F11
:100CD0001F4FEE24EA94F12C24E6C22ED12C81E39E
:100CE00092E00E94FE01892B09F47CC00E94360428
:100CF0002B013C018AE0882E912CA12CB12C0E9462
:100D000036046419750986099709683E73408105A0
:100D10009105A8F321E0821A9108A108B10888EE94
:100D2000480E83E0581E611C711C81149104A104BB
:100D3000B10429F781E392E00E94DC011A82198252
:100D40001C821B821E821D828F831886F8010190EF
:100D50000020E9F73197AF01401B510BB801CE01DC
:100D600001960E9474048091CE029091CF02009768
:100D700011F169817A8161157105D9F04091D00234
:100D80005091D1022D813E814217530790F00E946D
:100D9000090A8D819E819093D3028093D2021E8294
:100DA0001D8289819A81009709F499CF0E948D084C
:100DB00096CF0E948D0889819A819093CF0280936B
:100DC000CE028B819C819093D1028093D0028D8141
:100DD0009E819093D3028093D2021A8219821C8240
:100DE0001B82DDCF8091D2029091D302892B09F42E
:100DF00079C08AE192E00E945B04882311F1A090FF
:100E00000002B0900102B5018BE00E94600360E037
:100E10008AE00E94D402B50189E00E94600360E08C
:100E200086E00E94D402B50185E00E94600360E084
:100E300083E00E94D40260E087E00E94D40260E078
:100E400083C08CE192E00E945B048823E9F0A090CB
:100E50000002B090010260E08BE00E94D402B50174
:100E60008AE00E94600360E089E00E94D402B5013C
:100E700086E00E94600360E085E00E94D402B50134
:100E800083E00E946003D7CF8EE192E00E945B0472
:100E9000882399F1A0900002B090010260E08BE0FD
:100EA0000E94D40260E08AE00E94D402B50189E089
:100EB0000E94600360E086E00E94D402B50185E0F4
:100EC0000E94600360E083E00E94D40260E087E05B
:100ED0000E94D40260E084E00E94D40261E082E0DB
:100EE0000E94D40250E040E06BE172E08EEC92E0B0
:100EF0000E9474040E94A302F2CE80E292E00E945B
:100F00005B04882331F1A0900002B0900102B5018A
:100F10008BE00E94600360E08AE00E94D40260E0FF
:100F200089E00E94D40260E086E00E94D402B5010C
:100F300085E00E94600360E083E00E94D40260E0EC
:100F400087E00E94D40261E084E00E94D40260E065
:100F5000C6CF82E292E00E945B048823D1F060E079
:100F60008BE00E94D40260E08AE00E94D40260E03C
:100F700089E00E94D40260E086E00E94D40260E032
:100F800085E00E94D40260E083E00E94D40261E028
:100F900053CF84E292E00E945B04882329F0D09230
:100FA0000102C09200029ECF86E292E00E945B04A2
:100FB000882309F497CFF0920102E092000292CFC9
:100FC0008091CE029091CF02009711F00C948D0881
:100FD0000895EE0FFF1F881F8BBF0790F691E02D3D
:100FE00019940F931F93CF93DF938230910510F4E0
:100FF00082E090E0E091D602F091D70230E020E06C
:10100000B0E0A0E0309799F42115310509F44AC009
:10101000281B390B24303105D8F58A819B81611555
:10102000710589F1FB0193838283FE0111C0408128
:1010300051810281138148175907E0F04817590779
:1010400099F4109761F012960C93129713961C93D3
:101050003296CF01DF91CF911F910F9108950093A8
:10106000D6021093D702F4CF2115310551F0421763
:10107000530738F0A901DB019A01BD01DF01F80136
:10108000C1CFEF01F9CF9093D7028093D602CDCF95
:10109000FE01E20FF31F81939193225031093983AE
:1010A0002883D7CF2091D4023091D502232B41F44D
:1010B00020910402309105023093D5022093D4028E
:1010C00020910202309103022115310541F42DB720
:1010D0003EB74091060250910702241B350BE09168
:1010E000D402F091D502E217F307A0F42E1B3F0BB8
:1010F0002817390778F0AC014E5F5F4F241735078A
:1011000048F04E0F5F1F5093D5024093D402819355
:1011100091939FCFF0E0E0E09CCFCF93DF930097D7
:10112000E9F0FC01329713821282A091D602B091AD
:10113000D702ED0130E020E01097A1F42081318149
:10114000820F931F2091D4023091D50228173907BE
:1011500009F061C0F093D502E093D402DF91CF9102
:101160000895EA01CE17DF07E8F54A815B819E0109
:1011700041155105B1F7E901FB83EA834991599182
:10118000C40FD51FEC17FD0761F480819181029691
:10119000840F951FE90199838883828193819B83C2
:1011A0008A83F0E0E0E012968D919C91139700976E
:1011B000B9F52D913C911197CD010296820F931FA5
:1011C0002091D4023091D5022817390739F630978B
:1011D00051F51092D7021092D602B093D502A09387
:1011E000D402BCCFD383C28340815181840F951F29
:1011F000C817D90761F44E5F5F4F88819981480F06
:10120000591F518340838A819B8193838283211557
:10121000310509F0B0CFF093D702E093D6029ECF0C
:10122000FD01DC01C0CF13821282D7CF4F925F92B3
:101230006F927F928F929F92AF92BF92CF92DF92E6
:10124000EF92FF920F931F93CF93DF938C01009740
:1012500099F4CB01DF91CF911F910F91FF90EF9007
:10126000DF90CF90BF90AF909F908F907F906F90C6
:101270005F904F900C94F107FC01E60FF71F9C0163
:1012800022503109E217F30708F4AEC0D901CD911D
:10129000DC911197C617D70720F1C530D10578F03A
:1012A000CE0104978617970750F0C61BD70B2297DD
:1012B000C193D1936D937C93CF010E948D08C80197
:1012C000DF91CF911F910F91FF90EF90DF90CF9022
:1012D000BF90AF909F908F907F906F905F904F9056
:1012E00008955B01AC1ABD0A4C018C0E9D1EA091A5
:1012F000D602B091D702512C412CF12CE12C109741
:1013000031F58091D4029091D5028815990509F0A4
:101310005CC04616570608F058C0809102029091B2
:101320000302009741F48DB79EB740910602509199
:101330000702841B950BE817F90708F055C0F093D6
:10134000D502E093D402F90171836083B8CF8D9107
:101350009C91119712966C90129713967C9013970C
:10136000A815B90559F56C0142E0C40ED11CCA1488
:10137000DB0420F1AC014A195B09DA0112961597DA
:1013800080F06282738251834083D9016D937C9394
:10139000E114F10471F0D7011396FC93EE931297C8
:1013A0008ECF22968C0F9D1FF90191838083F301CC
:1013B000EFCFF093D702E093D60281CF48165906BB
:1013C00008F42C017D01D3019ACFCB010E94F107D3
:1013D0007C01009749F0AE01B8010E94F709C801ED
:1013E0000E948D0887016BCF10E000E068CFFB0101
:1013F000DC0102C001900D9241505040D8F7089591
:10140000FB01DC018D91019080190110D9F3990B3A
:101410000895FB01DC0101900D920020E1F7089591
:1014200011E0CCE4D1E000E006C0802FFE010E9474
:10143000E9072196011DCD34D10780E00807A9F7FF
:04144000F894FFCF4E
:10144400FF000000D8028000000000003602A00166
:10145400CD018302FE01DC01F001310032003300D2
:081464003400350036003700AA
:00000001FF
